{"contracts/MaxxitTradingModule.sol":{"MaxxitTradingModule":{"abi":[{"inputs":[{"internalType":"address","name":"_executor","type":"address"},{"internalType":"address","name":"_platformFeeReceiver","type":"address"}],"stateMutability":"nonpayable","type":"constructor"},{"anonymous":false,"inputs":[{"indexed":true,"internalType":"address","name":"safe","type":"address"},{"indexed":false,"internalType":"string","name":"acpServiceId","type":"string"}],"name":"ACPServiceIdSet","type":"event"},{"anonymous":false,"inputs":[{"indexed":true,"internalType":"address","name":"safe","type":"address"},{"indexed":false,"internalType":"uint256","name":"initialCapital","type":"uint256"}],"name":"ModuleInitialized","type":"event"},{"anonymous":false,"inputs":[{"indexed":true,"internalType":"address","name":"safe","type":"address"},{"indexed":true,"internalType":"address","name":"token","type":"address"},{"indexed":false,"internalType":"uint256","name":"amountIn","type":"uint256"},{"indexed":false,"internalType":"uint256","name":"amountOut","type":"uint256"},{"indexed":false,"internalType":"uint256","name":"profit","type":"uint256"},{"indexed":false,"internalType":"uint256","name":"profitShare","type":"uint256"}],"name":"PositionClosed","type":"event"},{"anonymous":false,"inputs":[{"indexed":true,"internalType":"address","name":"safe","type":"address"},{"indexed":true,"internalType":"address","name":"agentCreator","type":"address"},{"indexed":false,"internalType":"uint256","name":"amount","type":"uint256"}],"name":"ProfitShareDistributed","type":"event"},{"anonymous":false,"inputs":[{"indexed":true,"internalType":"bytes32","name":"signalHash","type":"bytes32"},{"indexed":true,"internalType":"address","name":"creator","type":"address"},{"indexed":false,"internalType":"uint256","name":"timestamp","type":"uint256"}],"name":"ProofOfIntent","type":"event"},{"anonymous":false,"inputs":[{"indexed":true,"internalType":"address","name":"safe","type":"address"},{"indexed":true,"internalType":"address","name":"token","type":"address"},{"indexed":false,"internalType":"bool","name":"enabled","type":"bool"}],"name":"TokenWhitelistUpdated","type":"event"},{"anonymous":false,"inputs":[{"indexed":true,"internalType":"address","name":"safe","type":"address"},{"indexed":true,"internalType":"address","name":"tokenIn","type":"address"},{"indexed":true,"internalType":"address","name":"tokenOut","type":"address"},{"indexed":false,"internalType":"uint256","name":"amountIn","type":"uint256"},{"indexed":false,"internalType":"uint256","name":"amountOut","type":"uint256"}],"name":"TradeExecuted","type":"event"},{"anonymous":false,"inputs":[{"indexed":true,"internalType":"address","name":"safe","type":"address"},{"indexed":false,"internalType":"uint256","name":"amount","type":"uint256"},{"indexed":false,"internalType":"address","name":"receiver","type":"address"}],"name":"TradeFeeCollected","type":"event"},{"inputs":[],"name":"PLATFORM_FEE","outputs":[{"internalType":"uint256","name":"","type":"uint256"}],"stateMutability":"view","type":"function"},{"inputs":[],"name":"PROFIT_SHARE_BPS","outputs":[{"internalType":"uint256","name":"","type":"uint256"}],"stateMutability":"view","type":"function"},{"inputs":[],"name":"UNISWAP_ROUTER","outputs":[{"internalType":"address","name":"","type":"address"}],"stateMutability":"view","type":"function"},{"inputs":[],"name":"USDC","outputs":[{"internalType":"address","name":"","type":"address"}],"stateMutability":"view","type":"function"},{"inputs":[{"internalType":"address","name":"","type":"address"}],"name":"acpServiceIds","outputs":[{"internalType":"string","name":"","type":"string"}],"stateMutability":"view","type":"function"},{"inputs":[{"internalType":"address","name":"safe","type":"address"},{"internalType":"address","name":"tokenIn","type":"address"},{"internalType":"uint256","name":"amountIn","type":"uint256"},{"internalType":"uint256","name":"minAmountOut","type":"uint256"},{"internalType":"uint24","name":"poolFee","type":"uint24"},{"internalType":"address","name":"agentCreator","type":"address"},{"internalType":"uint256","name":"entryValueUSDC","type":"uint256"}],"name":"closePosition","outputs":[{"internalType":"uint256","name":"amountOut","type":"uint256"}],"stateMutability":"nonpayable","type":"function"},{"inputs":[{"internalType":"address","name":"safe","type":"address"},{"internalType":"bytes32","name":"signalHash","type":"bytes32"},{"internalType":"address","name":"creatorAddress","type":"address"},{"internalType":"address","name":"tokenIn","type":"address"},{"internalType":"uint256","name":"amountIn","type":"uint256"},{"internalType":"uint256","name":"minAmountOut","type":"uint256"},{"internalType":"uint24","name":"poolFee","type":"uint24"},{"internalType":"address","name":"agentCreator","type":"address"},{"internalType":"uint256","name":"entryValueUSDC","type":"uint256"}],"name":"closePositionWithIntent","outputs":[{"internalType":"uint256","name":"amountOut","type":"uint256"}],"stateMutability":"nonpayable","type":"function"},{"inputs":[{"internalType":"address","name":"safe","type":"address"},{"internalType":"address","name":"tokenIn","type":"address"},{"internalType":"address","name":"tokenOut","type":"address"},{"internalType":"uint256","name":"amountIn","type":"uint256"},{"internalType":"uint256","name":"minAmountOut","type":"uint256"},{"internalType":"uint24","name":"poolFee","type":"uint24"}],"name":"executeTrade","outputs":[{"internalType":"uint256","name":"amountOut","type":"uint256"}],"stateMutability":"nonpayable","type":"function"},{"inputs":[{"internalType":"address","name":"safe","type":"address"},{"internalType":"bytes32","name":"signalHash","type":"bytes32"},{"internalType":"address","name":"creatorAddress","type":"address"},{"internalType":"address","name":"tokenIn","type":"address"},{"internalType":"address","name":"tokenOut","type":"address"},{"internalType":"uint256","name":"amountIn","type":"uint256"},{"internalType":"uint256","name":"minAmountOut","type":"uint256"},{"internalType":"uint24","name":"poolFee","type":"uint24"}],"name":"executeTradeWithIntent","outputs":[{"internalType":"uint256","name":"amountOut","type":"uint256"}],"stateMutability":"nonpayable","type":"function"},{"inputs":[],"name":"executor","outputs":[{"internalType":"address","name":"","type":"address"}],"stateMutability":"view","type":"function"},{"inputs":[{"internalType":"address","name":"safe","type":"address"}],"name":"getSafeStats","outputs":[{"internalType":"bool","name":"initialized","type":"bool"},{"internalType":"uint256","name":"initialCapital","type":"uint256"},{"internalType":"uint256","name":"totalTradesExecuted","type":"uint256"},{"internalType":"uint256","name":"totalFeesCollected","type":"uint256"},{"internalType":"uint256","name":"totalProfitsShared","type":"uint256"}],"stateMutability":"view","type":"function"},{"inputs":[{"internalType":"address","name":"safe","type":"address"}],"name":"initializeSafe","outputs":[],"stateMutability":"nonpayable","type":"function"},{"inputs":[{"internalType":"address","name":"safe","type":"address"},{"internalType":"address","name":"token","type":"address"}],"name":"isTokenWhitelisted","outputs":[{"internalType":"bool","name":"","type":"bool"}],"stateMutability":"view","type":"function"},{"inputs":[],"name":"moduleOwner","outputs":[{"internalType":"address","name":"","type":"address"}],"stateMutability":"view","type":"function"},{"inputs":[],"name":"platformFeeReceiver","outputs":[{"internalType":"address","name":"","type":"address"}],"stateMutability":"view","type":"function"},{"inputs":[{"internalType":"address","name":"","type":"address"}],"name":"safeStats","outputs":[{"internalType":"bool","name":"initialized","type":"bool"},{"internalType":"uint256","name":"initialCapital","type":"uint256"},{"internalType":"uint256","name":"totalTradesExecuted","type":"uint256"},{"internalType":"uint256","name":"totalFeesCollected","type":"uint256"},{"internalType":"uint256","name":"totalProfitsShared","type":"uint256"}],"stateMutability":"view","type":"function"},{"inputs":[{"internalType":"address","name":"safe","type":"address"},{"internalType":"string","name":"serviceId","type":"string"}],"name":"setACPServiceId","outputs":[],"stateMutability":"nonpayable","type":"function"},{"inputs":[{"internalType":"address","name":"newReceiver","type":"address"}],"name":"setPlatformFeeReceiver","outputs":[],"stateMutability":"nonpayable","type":"function"},{"inputs":[{"internalType":"address","name":"safe","type":"address"},{"internalType":"address","name":"token","type":"address"},{"internalType":"bool","name":"enabled","type":"bool"}],"name":"setTokenWhitelist","outputs":[],"stateMutability":"nonpayable","type":"function"},{"inputs":[{"internalType":"address","name":"","type":"address"},{"internalType":"address","name":"","type":"address"}],"name":"tokenWhitelist","outputs":[{"internalType":"bool","name":"","type":"bool"}],"stateMutability":"view","type":"function"}],"evm":{"bytecode":{"linkReferences":{},"object":"60c0346200016757601f62001f1538819003918201601f19168301916001600160401b038311848410176200016c57808492604094855283398101031262000167576200005a6020620000528362000182565b920162000182565b6001600160a01b0390828216156200012f5716908115620000ea573360805260a052600080546001600160a01b031916919091179055604051611d7d90816200019882396080518181816104c101526109e0015260a051818181610162015281816102f1015281816106530152818161074701528181610aaa01528181610cba01528181610ed201526116490152f35b60405162461bcd60e51b815260206004820152601460248201527f496e76616c6964206665652072656365697665720000000000000000000000006044820152606490fd5b60405162461bcd60e51b815260206004820152601060248201526f24b73b30b634b21032bc32b1baba37b960811b6044820152606490fd5b600080fd5b634e487b7160e01b600052604160045260246000fd5b51906001600160a01b0382168203620001675756fe6040608081526004908136101561001557600080fd5b600091823560e01c90816305d855f114610c515781630b7ed69814610a485781632d656ad714610a2257816334fbc9a114610a04578163452c04b1146109c05781635011d10714610948578163880d0a49146108a957816389a302711461087a578163939c9105146108275781639a52d3bb146107af578163b6f0a55b146106e2578163bfb8afa714610694578163c0e9ce5414610677578163c34c08e514610633578163ccd76976146105d0578163d8264920146105a1578163e340977a1461049a578163e4279a41146102c557508063ee18a6af146101d75763f9c1941f146100ff57600080fd5b346101d3576101003660031901126101d357610119610d11565b610121610d42565b9061012a610d58565b91608435906001600160a01b0380831683036101cf5760e4359662ffffff881688036101cc5750916020969391836101896101c597957f0000000000000000000000000000000000000000000000000000000000000000163314610e75565b87519142835216907f422eda3996a41c7ced7068f1d0bc80247c99a161ab5ea6edf66ab8789cf148958960243592a360c4359260a43592610ec0565b9051908152f35b80fd5b8680fd5b5080fd5b50346101d357602090816003193601126102c1576001600160a01b036101fb610d11565b16835260018083528184209382519485928282549261021984610d6e565b93848752888482169182600014610297575050600114610259575b858861025589610246848a0385610e13565b51928284938452830190610e35565b0390f35b87945081939291528383205b82841061027f575050508201018161024661025538610234565b8054848a018601528895508794909301928101610265565b60ff19168882015294151560051b8701909401945085935061024692506102559150389050610234565b8280fd5b919050346102c157602080600319360112610496576102e2610d11565b6001600160a01b0390610318827f0000000000000000000000000000000000000000000000000000000000000000163314610e75565b16928385526002825260ff8386205416610455578251926370a0823160e01b84528482850152828460248173833589fcd6edb6e08f4c7c32d4f71b54bda029135afa91821561044b5786926103f8575b7f6bfc790e212059fc023e662baf88adf0042bb30938f575f4b15ea4f5a7b75c0c945081519061039782610da8565b6001825284820184815283830189815260608401908a825260808501928b84528a8c52600289526103da878d2096511515879060ff801983541691151516179055565b5160018601555160028501555160038401555191015551908152a280f35b91508284813d8311610444575b61040f8183610e13565b81010312610440577f6bfc790e212059fc023e662baf88adf0042bb30938f575f4b15ea4f5a7b75c0c935191610368565b8580fd5b503d610405565b81513d88823e3d90fd5b90606492519162461bcd60e51b8352820152601360248201527f416c726561647920696e697469616c697a6564000000000000000000000000006044820152fd5b8380fd5b9050346102c15760203660031901126102c1576104b5610d11565b6001600160a01b0390817f000000000000000000000000000000000000000000000000000000000000000016330361055e571691821561051b5750507fffffffffffffffffffffffff000000000000000000000000000000000000000082541617815580f35b906020606492519162461bcd60e51b8352820152600f60248201527f496e76616c6964206164647265737300000000000000000000000000000000006044820152fd5b606483602086519162461bcd60e51b8352820152601160248201527f4f6e6c79206d6f64756c65206f776e65720000000000000000000000000000006044820152fd5b5050346101d357816003193601126101d35760209051732626664c2603336e57b271c5c0b26f421741e4818152f35b5050346101d35760e03660031901126101d3576105eb610d11565b916105f4610d2c565b6084359062ffffff821682036102c15760a435926001600160a01b03841684036101cc575091602094916101c59360c435936064359160443591611635565b5050346101d357816003193601126101d357602090516001600160a01b037f0000000000000000000000000000000000000000000000000000000000000000168152f35b5050346101d357816003193601126101d357602090516107d08152f35b5050346101d357806003193601126101d35760ff816020936106b4610d11565b6106bc610d2c565b6001600160a01b0391821683526003875283832091168252855220549151911615158152f35b5050346101d3576101203660031901126101d3576106fe610d11565b91610707610d42565b61070f610d58565b60c4359162ffffff831683036104965760e435936001600160a01b039081861686036101cc57509160209693918361076e6101c597957f0000000000000000000000000000000000000000000000000000000000000000163314610e75565b87519142835216907f422eda3996a41c7ced7068f1d0bc80247c99a161ab5ea6edf66ab8789cf148958960243592a3610104359360a4359160843591611635565b8284346101cc5760203660031901126101cc5781610255916001600160a01b036107d7610d11565b1681526002602052209160ff8354169260018101549460028201549060038301549201549251958695869192608093969594919660a0840197151584526020840152604083015260608201520152565b5050346101d35760c03660031901126101d357610842610d11565b61084a610d2c565b90610853610d42565b60a4359462ffffff861686036101cc575091602094916101c5936084359260643592610ec0565b5050346101d357816003193601126101d3576020905173833589fcd6edb6e08f4c7c32d4f71b54bda029138152f35b8284346101cc5760203660031901126101cc57608082610255926001600160a01b036108d3610d11565b1681526002602052208351946108e886610da8565b60ff82541615159485875260018301549687602082015260028401549283838301526003850154948560608401520154948591015251958695869192608093969594919660a0840197151584526020840152604083015260608201520152565b5050346101d357806003193601126101d357908160ff602093610969610d11565b93610972610d2c565b6001600160a01b0395861682526003875282822095168082529486522054169182156109a2575b50519015158152f35b73833589fcd6edb6e08f4c7c32d4f71b54bda0291314915038610999565b5050346101d357816003193601126101d357602090516001600160a01b037f0000000000000000000000000000000000000000000000000000000000000000168152f35b5050346101d357816003193601126101d3576020905162030d408152f35b5050346101d357816003193601126101d3576001600160a01b0360209254169051908152f35b839150346101d357826003193601126101d357610a63610d11565b9060249384359267ffffffffffffffff92838511610440573660238601121561044057840135928311610c4d5736868486010111610c4d576001600160a01b0390610ad1827f0000000000000000000000000000000000000000000000000000000000000000163314610e75565b1692838552600195602091878352838720610aec8154610d6e565b601f8111610c07575b5087601f8711600114610b7d5791839187808b9c819782977fa99d4e594e17fa9693a9c46535bffb5febcfec15d9474bd4301efed02a4f25f69d9e94610b70575b50501b906000198660031b1c19161790555b855196858896875286015201848401378181018301879052601f01601f19168101030190a280f35b860101359250858f610b36565b98601f198716828a52858a20908a5b818110610bf0575091889593917fa99d4e594e17fa9693a9c46535bffb5febcfec15d9474bd4301efed02a4f25f69a9b9c8780979510610bd4575b505084811b019055610b48565b8401850135600019600388901b60f8161c191690558c80610bc7565b858d0187013583559b87019b918301918701610b8c565b818952848920601f880160051c810191868910610c43575b601f0160051c01908a905b828110610c38575050610af5565b8a8155018a90610c2a565b9091508190610c1f565b8480fd5b5050346101d35760603660031901126101d357610c6c610d11565b610c74610d2c565b91604435801515808203610440577fd8d7b6d387fca91d5bb6edb4eaf305462ce76a1af2acae4f905a7d12689031f792610d096020936001600160a01b038097610ce1827f0000000000000000000000000000000000000000000000000000000000000000163314610e75565b1696878a5260038652838a20981697888a5285528289209060ff801983541691151516179055565b51908152a380f35b600435906001600160a01b0382168203610d2757565b600080fd5b602435906001600160a01b0382168203610d2757565b604435906001600160a01b0382168203610d2757565b606435906001600160a01b0382168203610d2757565b90600182811c92168015610d9e575b6020831014610d8857565b634e487b7160e01b600052602260045260246000fd5b91607f1691610d7d565b60a0810190811067ffffffffffffffff821117610dc457604052565b634e487b7160e01b600052604160045260246000fd5b610100810190811067ffffffffffffffff821117610dc457604052565b6080810190811067ffffffffffffffff821117610dc457604052565b90601f8019910116810190811067ffffffffffffffff821117610dc457604052565b919082519283825260005b848110610e61575050826000602080949584010152601f8019910116010190565b602081830181015184830182015201610e40565b15610e7c57565b606460405162461bcd60e51b815260206004820152600d60248201527f4f6e6c79206578656375746f72000000000000000000000000000000000000006044820152fd5b9291949093610ef96001600160a01b037f0000000000000000000000000000000000000000000000000000000000000000163314610e75565b6001600160a01b038416600052600260205260ff604060002054161561146d575b6001600160a01b038416600052600360205260406000206001600160a01b03871660005260205260ff604060002054168015611447575b156114035773833589fcd6edb6e08f4c7c32d4f71b54bda029136001600160a01b038616036113bf5762030d40831061137b57610fda60206001600160a01b03600054166040519063a9059cbb60e01b83830152602482015262030d40604482015260448152610fc081610df7565b6040518093819263468721a760e01b8352600483016115c0565b038160006001600160a01b038a165af19081156112995760009161135c575b5015611318576001600160a01b0384166000526002602052600360406000200180549062030d40820180921161124f57556001600160a01b03600054166040519062030d40825260208201527fff8ce3de7612757f5de36ca8b37f26c739c36eaa2eacc0603c6a15d8a2b5e49060406001600160a01b03871692a262030d3f19830192831161124f5761115261116061117a936020936110998989611ba7565b62ffffff604051926110aa84610dda565b6001600160a01b038b811685528c811688860152911660408085019182528a831660608601908152426080870190815260a087018c815260c08801968752600060e08901908152935163414bf38960e01b818d015288518716602482015260209098015186166044890152935162ffffff1660648801529051841660848701525160a4860152905160c4850152915160e4840152905116610104820152918290610124820190565b03601f198101835282610e13565b6040518093819263468721a760e01b8352600483016115fd565b038160006001600160a01b0388165af1908115611299576000916112e9575b50156112a557604051936370a0823160e01b85526001600160a01b03831660048601526020856024816001600160a01b0385165afa94851561129957600095611265575b506001600160a01b0383166000526002602052600260406000200190815490600019821461124f576001600160a01b038080927f3fcfb2f2e0146d5be7268f9e4cd3c4c0ce3428f68805db227b7fc378db7519ac9560016040960190558451968752896020880152169616941692a490565b634e487b7160e01b600052601160045260246000fd5b9094506020813d602011611291575b8161128160209383610e13565b81010312610d27575193386111dd565b3d9150611274565b6040513d6000823e3d90fd5b606460405162461bcd60e51b815260206004820152600b60248201527f53776170206661696c65640000000000000000000000000000000000000000006044820152fd5b61130b915060203d602011611311575b6113038183610e13565b8101906115a8565b38611199565b503d6112f9565b606460405162461bcd60e51b815260206004820152601560248201527f46656520636f6c6c656374696f6e206661696c656400000000000000000000006044820152fd5b611375915060203d602011611311576113038183610e13565b38610ff9565b606460405162461bcd60e51b815260206004820152601860248201527f416d6f756e7420746f6f20736d616c6c20666f722066656500000000000000006044820152fd5b606460405162461bcd60e51b815260206004820152601260248201527f4f6e6c79205553444320617320696e70757400000000000000000000000000006044820152fd5b606460405162461bcd60e51b815260206004820152601560248201527f546f6b656e206e6f742077686974656c697374656400000000000000000000006044820152fd5b5073833589fcd6edb6e08f4c7c32d4f71b54bda029136001600160a01b03871614610f51565b6040516370a0823160e01b81526001600160a01b038516600482015260208160248173833589fcd6edb6e08f4c7c32d4f71b54bda029135afa90811561129957600091611569575b506040516114c281610da8565b6001815260046020820183815260408301600081526060840190600082526080850192600084526001600160a01b038b166000526002602052611519604060002096511515879060ff801983541691151516179055565b516001860155516002850155516003840155519101556040519081527f6bfc790e212059fc023e662baf88adf0042bb30938f575f4b15ea4f5a7b75c0c60206001600160a01b03871692a2610f1a565b90506020813d602011611593575b8161158460209383610e13565b81010312610d275751386114b5565b3d9150611577565b9190820391821161124f57565b90816020910312610d2757518015158103610d275790565b919060606115f860009273833589fcd6edb6e08f4c7c32d4f71b54bda029138652836020870152608060408701526080860190610e35565b930152565b919060606115f8600092732626664c2603336e57b271c5c0b26f421741e4818652836020870152608060408701526080860190610e35565b90919293946001600160a01b0394611670867f0000000000000000000000000000000000000000000000000000000000000000163314610e75565b858316956000908782526020926002845260409460ff868520541615611b64578216958615611b2157876116a391611ba7565b8451906370a0823160e01b908183528a600484015273833589fcd6edb6e08f4c7c32d4f71b54bda02913938684602481885afa938415611b17578694611ae8575b508751996116f18b610dda565b169b8c8a5284878b015262ffffff16878a01528a60608a01524260808a01528960a08a015260c08901528360e08901528551809886820163414bf38960e01b905260248201906117a1909160e0610100820193816001600160a01b039182815116855282602082015116602086015262ffffff60408201511660408601528260608201511660608601526080810151608086015260a081015160a086015260c081015160c0860152015116910152565b03601f19810189526117b39089610e13565b855185818c81888163468721a760e01b9e8f825260048201906117d5916115fd565b03925af1908115611ade578591611ac1575b5015611a7e578490602487518095819382528d60048301525afa80156119ec578390611a4d575b611818925061159b565b98808a1161182d575b50505050505050505090565b611837908a61159b565b936107d0808602908682041486151715611a39576127109004958587116119f657908a939291876118aa575b505083519687525085015283015260608201527fa12c8f9b9cb538f29c4a1af155d26d6337f896967b74b297f75f1864b719408590608090a3388080808080808080611821565b839450926118ee91929386519063a9059cbb60e01b83830152846024830152896044830152604482526118dc82610df7565b875193849283928352600483016115c0565b0381868d5af19081156119ec5783916119cf575b501561198c57877fde542754cbe64e85d7631fd8696b87e68cc3cc5521243efb5cb15687287ba4fa848651898152a38681526002825260048382200180549186830180931161197857505587908160807fa12c8f9b9cb538f29c4a1af155d26d6337f896967b74b297f75f1864b7194085611863565b80634e487b7160e01b602492526011600452fd5b60648385519062461bcd60e51b82526004820152601c60248201527f50726f666974207368617265207472616e73666572206661696c6564000000006044820152fd5b6119e69150843d8611611311576113038183610e13565b38611902565b85513d85823e3d90fd5b60648486519062461bcd60e51b82526004820152601460248201527f496e76616c69642070726f6669742073686172650000000000000000000000006044820152fd5b602483634e487b7160e01b81526011600452fd5b50908381813d8311611a77575b611a648183610e13565b810103126102c15790611818915161180e565b503d611a5a565b60648587519062461bcd60e51b82526004820152601160248201527f436c6f73652073776170206661696c65640000000000000000000000000000006044820152fd5b611ad89150863d8811611311576113038183610e13565b386117e7565b87513d87823e3d90fd5b9093508681813d8311611b10575b611b008183610e13565b81010312610440575192386116e4565b503d611af6565b88513d88823e3d90fd5b60648587519062461bcd60e51b82526004820152601560248201527f496e76616c6964206167656e742063726561746f7200000000000000000000006044820152fd5b60648587519062461bcd60e51b82526004820152601460248201527f53616665206e6f7420696e697469616c697a65640000000000000000000000006044820152fd5b906001600160a01b0380911690604051927fdd62ed3e0000000000000000000000000000000000000000000000000000000084521690816004840152732626664c2603336e57b271c5c0b26f421741e4818060248501526020938481604481865afa801561129957600090611cfa575b7f7fffffffffffffffffffffffffffffffffffffffffffffffffffffffffffffff915010611c46575b50505050565b611cc0928492604051927f095ea7b300000000000000000000000000000000000000000000000000000000858501526024840152600019604484015260448352611c8f83610df7565b600060405180968195829463468721a760e01b84526004840152836024840152608060448401526084830190610e35565b82606483015203925af1801561129957611cdc575b8080611c40565b81611cf292903d10611311576113038183610e13565b503880611cd5565b8582813d8311611d40575b611d0f8183610e13565b810103126101cc57507f7fffffffffffffffffffffffffffffffffffffffffffffffffffffffffffffff9051611c17565b503d611d0556fea26469706673582212201636cf1be8f787c74673ebcc8fde1671dc48e0dd841f887243d29be0aeea496f64736f6c63430008140033","opcodes":"PUSH1 0xC0 CALLVALUE PUSH3 0x167 JUMPI PUSH1 0x1F PUSH3 0x1F15 CODESIZE DUP2 SWAP1 SUB SWAP2 DUP3 ADD PUSH1 0x1F NOT AND DUP4 ADD SWAP2 PUSH1 0x1 PUSH1 0x1 PUSH1 0x40 SHL SUB DUP4 GT DUP5 DUP5 LT OR PUSH3 0x16C JUMPI DUP1 DUP5 SWAP3 PUSH1 0x40 SWAP5 DUP6 MSTORE DUP4 CODECOPY DUP2 ADD SUB SLT PUSH3 0x167 JUMPI PUSH3 0x5A PUSH1 0x20 PUSH3 0x52 DUP4 PUSH3 0x182 JUMP JUMPDEST SWAP3 ADD PUSH3 0x182 JUMP JUMPDEST PUSH1 0x1 PUSH1 0x1 PUSH1 0xA0 SHL SUB SWAP1 DUP3 DUP3 AND ISZERO PUSH3 0x12F JUMPI AND SWAP1 DUP2 ISZERO PUSH3 0xEA JUMPI CALLER PUSH1 0x80 MSTORE PUSH1 0xA0 MSTORE PUSH1 0x0 DUP1 SLOAD PUSH1 0x1 PUSH1 0x1 PUSH1 0xA0 SHL SUB NOT AND SWAP2 SWAP1 SWAP2 OR SWAP1 SSTORE PUSH1 0x40 MLOAD PUSH2 0x1D7D SWAP1 DUP2 PUSH3 0x198 DUP3 CODECOPY PUSH1 0x80 MLOAD DUP2 DUP2 DUP2 PUSH2 0x4C1 ADD MSTORE PUSH2 0x9E0 ADD MSTORE PUSH1 0xA0 MLOAD DUP2 DUP2 DUP2 PUSH2 0x162 ADD MSTORE DUP2 DUP2 PUSH2 0x2F1 ADD MSTORE DUP2 DUP2 PUSH2 0x653 ADD MSTORE DUP2 DUP2 PUSH2 0x747 ADD MSTORE DUP2 DUP2 PUSH2 0xAAA ADD MSTORE DUP2 DUP2 PUSH2 0xCBA ADD MSTORE DUP2 DUP2 PUSH2 0xED2 ADD MSTORE PUSH2 0x1649 ADD MSTORE RETURN JUMPDEST PUSH1 0x40 MLOAD PUSH3 0x461BCD PUSH1 0xE5 SHL DUP2 MSTORE PUSH1 0x20 PUSH1 0x4 DUP3 ADD MSTORE PUSH1 0x14 PUSH1 0x24 DUP3 ADD MSTORE PUSH32 0x496E76616C696420666565207265636569766572000000000000000000000000 PUSH1 0x44 DUP3 ADD MSTORE PUSH1 0x64 SWAP1 REVERT JUMPDEST PUSH1 0x40 MLOAD PUSH3 0x461BCD PUSH1 0xE5 SHL DUP2 MSTORE PUSH1 0x20 PUSH1 0x4 DUP3 ADD MSTORE PUSH1 0x10 PUSH1 0x24 DUP3 ADD MSTORE PUSH16 0x24B73B30B634B21032BC32B1BABA37B9 PUSH1 0x81 SHL PUSH1 0x44 DUP3 ADD MSTORE PUSH1 0x64 SWAP1 REVERT JUMPDEST PUSH1 0x0 DUP1 REVERT JUMPDEST PUSH4 0x4E487B71 PUSH1 0xE0 SHL PUSH1 0x0 MSTORE PUSH1 0x41 PUSH1 0x4 MSTORE PUSH1 0x24 PUSH1 0x0 REVERT JUMPDEST MLOAD SWAP1 PUSH1 0x1 PUSH1 0x1 PUSH1 0xA0 SHL SUB DUP3 AND DUP3 SUB PUSH3 0x167 JUMPI JUMP INVALID PUSH1 0x40 PUSH1 0x80 DUP2 MSTORE PUSH1 0x4 SWAP1 DUP2 CALLDATASIZE LT ISZERO PUSH2 0x15 JUMPI PUSH1 0x0 DUP1 REVERT JUMPDEST PUSH1 0x0 SWAP2 DUP3 CALLDATALOAD PUSH1 0xE0 SHR SWAP1 DUP2 PUSH4 0x5D855F1 EQ PUSH2 0xC51 JUMPI DUP2 PUSH4 0xB7ED698 EQ PUSH2 0xA48 JUMPI DUP2 PUSH4 0x2D656AD7 EQ PUSH2 0xA22 JUMPI DUP2 PUSH4 0x34FBC9A1 EQ PUSH2 0xA04 JUMPI DUP2 PUSH4 0x452C04B1 EQ PUSH2 0x9C0 JUMPI DUP2 PUSH4 0x5011D107 EQ PUSH2 0x948 JUMPI DUP2 PUSH4 0x880D0A49 EQ PUSH2 0x8A9 JUMPI DUP2 PUSH4 0x89A30271 EQ PUSH2 0x87A JUMPI DUP2 PUSH4 0x939C9105 EQ PUSH2 0x827 JUMPI DUP2 PUSH4 0x9A52D3BB EQ PUSH2 0x7AF JUMPI DUP2 PUSH4 0xB6F0A55B EQ PUSH2 0x6E2 JUMPI DUP2 PUSH4 0xBFB8AFA7 EQ PUSH2 0x694 JUMPI DUP2 PUSH4 0xC0E9CE54 EQ PUSH2 0x677 JUMPI DUP2 PUSH4 0xC34C08E5 EQ PUSH2 0x633 JUMPI DUP2 PUSH4 0xCCD76976 EQ PUSH2 0x5D0 JUMPI DUP2 PUSH4 0xD8264920 EQ PUSH2 0x5A1 JUMPI DUP2 PUSH4 0xE340977A EQ PUSH2 0x49A JUMPI DUP2 PUSH4 0xE4279A41 EQ PUSH2 0x2C5 JUMPI POP DUP1 PUSH4 0xEE18A6AF EQ PUSH2 0x1D7 JUMPI PUSH4 0xF9C1941F EQ PUSH2 0xFF JUMPI PUSH1 0x0 DUP1 REVERT JUMPDEST CALLVALUE PUSH2 0x1D3 JUMPI PUSH2 0x100 CALLDATASIZE PUSH1 0x3 NOT ADD SLT PUSH2 0x1D3 JUMPI PUSH2 0x119 PUSH2 0xD11 JUMP JUMPDEST PUSH2 0x121 PUSH2 0xD42 JUMP JUMPDEST SWAP1 PUSH2 0x12A PUSH2 0xD58 JUMP JUMPDEST SWAP2 PUSH1 0x84 CALLDATALOAD SWAP1 PUSH1 0x1 PUSH1 0x1 PUSH1 0xA0 SHL SUB DUP1 DUP4 AND DUP4 SUB PUSH2 0x1CF JUMPI PUSH1 0xE4 CALLDATALOAD SWAP7 PUSH3 0xFFFFFF DUP9 AND DUP9 SUB PUSH2 0x1CC JUMPI POP SWAP2 PUSH1 0x20 SWAP7 SWAP4 SWAP2 DUP4 PUSH2 0x189 PUSH2 0x1C5 SWAP8 SWAP6 PUSH32 0x0 AND CALLER EQ PUSH2 0xE75 JUMP JUMPDEST DUP8 MLOAD SWAP2 TIMESTAMP DUP4 MSTORE AND SWAP1 PUSH32 0x422EDA3996A41C7CED7068F1D0BC80247C99A161AB5EA6EDF66AB8789CF14895 DUP10 PUSH1 0x24 CALLDATALOAD SWAP3 LOG3 PUSH1 0xC4 CALLDATALOAD SWAP3 PUSH1 0xA4 CALLDATALOAD SWAP3 PUSH2 0xEC0 JUMP JUMPDEST SWAP1 MLOAD SWAP1 DUP2 MSTORE RETURN JUMPDEST DUP1 REVERT JUMPDEST DUP7 DUP1 REVERT JUMPDEST POP DUP1 REVERT JUMPDEST POP CALLVALUE PUSH2 0x1D3 JUMPI PUSH1 0x20 SWAP1 DUP2 PUSH1 0x3 NOT CALLDATASIZE ADD SLT PUSH2 0x2C1 JUMPI PUSH1 0x1 PUSH1 0x1 PUSH1 0xA0 SHL SUB PUSH2 0x1FB PUSH2 0xD11 JUMP JUMPDEST AND DUP4 MSTORE PUSH1 0x1 DUP1 DUP4 MSTORE DUP2 DUP5 KECCAK256 SWAP4 DUP3 MLOAD SWAP5 DUP6 SWAP3 DUP3 DUP3 SLOAD SWAP3 PUSH2 0x219 DUP5 PUSH2 0xD6E JUMP JUMPDEST SWAP4 DUP5 DUP8 MSTORE DUP9 DUP5 DUP3 AND SWAP2 DUP3 PUSH1 0x0 EQ PUSH2 0x297 JUMPI POP POP PUSH1 0x1 EQ PUSH2 0x259 JUMPI JUMPDEST DUP6 DUP9 PUSH2 0x255 DUP10 PUSH2 0x246 DUP5 DUP11 SUB DUP6 PUSH2 0xE13 JUMP JUMPDEST MLOAD SWAP3 DUP3 DUP5 SWAP4 DUP5 MSTORE DUP4 ADD SWAP1 PUSH2 0xE35 JUMP JUMPDEST SUB SWAP1 RETURN JUMPDEST DUP8 SWAP5 POP DUP2 SWAP4 SWAP3 SWAP2 MSTORE DUP4 DUP4 KECCAK256 JUMPDEST DUP3 DUP5 LT PUSH2 0x27F JUMPI POP POP POP DUP3 ADD ADD DUP2 PUSH2 0x246 PUSH2 0x255 CODESIZE PUSH2 0x234 JUMP JUMPDEST DUP1 SLOAD DUP5 DUP11 ADD DUP7 ADD MSTORE DUP9 SWAP6 POP DUP8 SWAP5 SWAP1 SWAP4 ADD SWAP3 DUP2 ADD PUSH2 0x265 JUMP JUMPDEST PUSH1 0xFF NOT AND DUP9 DUP3 ADD MSTORE SWAP5 ISZERO ISZERO PUSH1 0x5 SHL DUP8 ADD SWAP1 SWAP5 ADD SWAP5 POP DUP6 SWAP4 POP PUSH2 0x246 SWAP3 POP PUSH2 0x255 SWAP2 POP CODESIZE SWAP1 POP PUSH2 0x234 JUMP JUMPDEST DUP3 DUP1 REVERT JUMPDEST SWAP2 SWAP1 POP CALLVALUE PUSH2 0x2C1 JUMPI PUSH1 0x20 DUP1 PUSH1 0x3 NOT CALLDATASIZE ADD SLT PUSH2 0x496 JUMPI PUSH2 0x2E2 PUSH2 0xD11 JUMP JUMPDEST PUSH1 0x1 PUSH1 0x1 PUSH1 0xA0 SHL SUB SWAP1 PUSH2 0x318 DUP3 PUSH32 0x0 AND CALLER EQ PUSH2 0xE75 JUMP JUMPDEST AND SWAP3 DUP4 DUP6 MSTORE PUSH1 0x2 DUP3 MSTORE PUSH1 0xFF DUP4 DUP7 KECCAK256 SLOAD AND PUSH2 0x455 JUMPI DUP3 MLOAD SWAP3 PUSH4 0x70A08231 PUSH1 0xE0 SHL DUP5 MSTORE DUP5 DUP3 DUP6 ADD MSTORE DUP3 DUP5 PUSH1 0x24 DUP2 PUSH20 0x833589FCD6EDB6E08F4C7C32D4F71B54BDA02913 GAS STATICCALL SWAP2 DUP3 ISZERO PUSH2 0x44B JUMPI DUP7 SWAP3 PUSH2 0x3F8 JUMPI JUMPDEST PUSH32 0x6BFC790E212059FC023E662BAF88ADF0042BB30938F575F4B15EA4F5A7B75C0C SWAP5 POP DUP2 MLOAD SWAP1 PUSH2 0x397 DUP3 PUSH2 0xDA8 JUMP JUMPDEST PUSH1 0x1 DUP3 MSTORE DUP5 DUP3 ADD DUP5 DUP2 MSTORE DUP4 DUP4 ADD DUP10 DUP2 MSTORE PUSH1 0x60 DUP5 ADD SWAP1 DUP11 DUP3 MSTORE PUSH1 0x80 DUP6 ADD SWAP3 DUP12 DUP5 MSTORE DUP11 DUP13 MSTORE PUSH1 0x2 DUP10 MSTORE PUSH2 0x3DA DUP8 DUP14 KECCAK256 SWAP7 MLOAD ISZERO ISZERO DUP8 SWAP1 PUSH1 0xFF DUP1 NOT DUP4 SLOAD AND SWAP2 ISZERO ISZERO AND OR SWAP1 SSTORE JUMP JUMPDEST MLOAD PUSH1 0x1 DUP7 ADD SSTORE MLOAD PUSH1 0x2 DUP6 ADD SSTORE MLOAD PUSH1 0x3 DUP5 ADD SSTORE MLOAD SWAP2 ADD SSTORE MLOAD SWAP1 DUP2 MSTORE LOG2 DUP1 RETURN JUMPDEST SWAP2 POP DUP3 DUP5 DUP2 RETURNDATASIZE DUP4 GT PUSH2 0x444 JUMPI JUMPDEST PUSH2 0x40F DUP2 DUP4 PUSH2 0xE13 JUMP JUMPDEST DUP2 ADD SUB SLT PUSH2 0x440 JUMPI PUSH32 0x6BFC790E212059FC023E662BAF88ADF0042BB30938F575F4B15EA4F5A7B75C0C SWAP4 MLOAD SWAP2 PUSH2 0x368 JUMP JUMPDEST DUP6 DUP1 REVERT JUMPDEST POP RETURNDATASIZE PUSH2 0x405 JUMP JUMPDEST DUP2 MLOAD RETURNDATASIZE DUP9 DUP3 RETURNDATACOPY RETURNDATASIZE SWAP1 REVERT JUMPDEST SWAP1 PUSH1 0x64 SWAP3 MLOAD SWAP2 PUSH3 0x461BCD PUSH1 0xE5 SHL DUP4 MSTORE DUP3 ADD MSTORE PUSH1 0x13 PUSH1 0x24 DUP3 ADD MSTORE PUSH32 0x416C726561647920696E697469616C697A656400000000000000000000000000 PUSH1 0x44 DUP3 ADD MSTORE REVERT JUMPDEST DUP4 DUP1 REVERT JUMPDEST SWAP1 POP CALLVALUE PUSH2 0x2C1 JUMPI PUSH1 0x20 CALLDATASIZE PUSH1 0x3 NOT ADD SLT PUSH2 0x2C1 JUMPI PUSH2 0x4B5 PUSH2 0xD11 JUMP JUMPDEST PUSH1 0x1 PUSH1 0x1 PUSH1 0xA0 SHL SUB SWAP1 DUP2 PUSH32 0x0 AND CALLER SUB PUSH2 0x55E JUMPI AND SWAP2 DUP3 ISZERO PUSH2 0x51B JUMPI POP POP PUSH32 0xFFFFFFFFFFFFFFFFFFFFFFFF0000000000000000000000000000000000000000 DUP3 SLOAD AND OR DUP2 SSTORE DUP1 RETURN JUMPDEST SWAP1 PUSH1 0x20 PUSH1 0x64 SWAP3 MLOAD SWAP2 PUSH3 0x461BCD PUSH1 0xE5 SHL DUP4 MSTORE DUP3 ADD MSTORE PUSH1 0xF PUSH1 0x24 DUP3 ADD MSTORE PUSH32 0x496E76616C696420616464726573730000000000000000000000000000000000 PUSH1 0x44 DUP3 ADD MSTORE REVERT JUMPDEST PUSH1 0x64 DUP4 PUSH1 0x20 DUP7 MLOAD SWAP2 PUSH3 0x461BCD PUSH1 0xE5 SHL DUP4 MSTORE DUP3 ADD MSTORE PUSH1 0x11 PUSH1 0x24 DUP3 ADD MSTORE PUSH32 0x4F6E6C79206D6F64756C65206F776E6572000000000000000000000000000000 PUSH1 0x44 DUP3 ADD MSTORE REVERT JUMPDEST POP POP CALLVALUE PUSH2 0x1D3 JUMPI DUP2 PUSH1 0x3 NOT CALLDATASIZE ADD SLT PUSH2 0x1D3 JUMPI PUSH1 0x20 SWAP1 MLOAD PUSH20 0x2626664C2603336E57B271C5C0B26F421741E481 DUP2 MSTORE RETURN JUMPDEST POP POP CALLVALUE PUSH2 0x1D3 JUMPI PUSH1 0xE0 CALLDATASIZE PUSH1 0x3 NOT ADD SLT PUSH2 0x1D3 JUMPI PUSH2 0x5EB PUSH2 0xD11 JUMP JUMPDEST SWAP2 PUSH2 0x5F4 PUSH2 0xD2C JUMP JUMPDEST PUSH1 0x84 CALLDATALOAD SWAP1 PUSH3 0xFFFFFF DUP3 AND DUP3 SUB PUSH2 0x2C1 JUMPI PUSH1 0xA4 CALLDATALOAD SWAP3 PUSH1 0x1 PUSH1 0x1 PUSH1 0xA0 SHL SUB DUP5 AND DUP5 SUB PUSH2 0x1CC JUMPI POP SWAP2 PUSH1 0x20 SWAP5 SWAP2 PUSH2 0x1C5 SWAP4 PUSH1 0xC4 CALLDATALOAD SWAP4 PUSH1 0x64 CALLDATALOAD SWAP2 PUSH1 0x44 CALLDATALOAD SWAP2 PUSH2 0x1635 JUMP JUMPDEST POP POP CALLVALUE PUSH2 0x1D3 JUMPI DUP2 PUSH1 0x3 NOT CALLDATASIZE ADD SLT PUSH2 0x1D3 JUMPI PUSH1 0x20 SWAP1 MLOAD PUSH1 0x1 PUSH1 0x1 PUSH1 0xA0 SHL SUB PUSH32 0x0 AND DUP2 MSTORE RETURN JUMPDEST POP POP CALLVALUE PUSH2 0x1D3 JUMPI DUP2 PUSH1 0x3 NOT CALLDATASIZE ADD SLT PUSH2 0x1D3 JUMPI PUSH1 0x20 SWAP1 MLOAD PUSH2 0x7D0 DUP2 MSTORE RETURN JUMPDEST POP POP CALLVALUE PUSH2 0x1D3 JUMPI DUP1 PUSH1 0x3 NOT CALLDATASIZE ADD SLT PUSH2 0x1D3 JUMPI PUSH1 0xFF DUP2 PUSH1 0x20 SWAP4 PUSH2 0x6B4 PUSH2 0xD11 JUMP JUMPDEST PUSH2 0x6BC PUSH2 0xD2C JUMP JUMPDEST PUSH1 0x1 PUSH1 0x1 PUSH1 0xA0 SHL SUB SWAP2 DUP3 AND DUP4 MSTORE PUSH1 0x3 DUP8 MSTORE DUP4 DUP4 KECCAK256 SWAP2 AND DUP3 MSTORE DUP6 MSTORE KECCAK256 SLOAD SWAP2 MLOAD SWAP2 AND ISZERO ISZERO DUP2 MSTORE RETURN JUMPDEST POP POP CALLVALUE PUSH2 0x1D3 JUMPI PUSH2 0x120 CALLDATASIZE PUSH1 0x3 NOT ADD SLT PUSH2 0x1D3 JUMPI PUSH2 0x6FE PUSH2 0xD11 JUMP JUMPDEST SWAP2 PUSH2 0x707 PUSH2 0xD42 JUMP JUMPDEST PUSH2 0x70F PUSH2 0xD58 JUMP JUMPDEST PUSH1 0xC4 CALLDATALOAD SWAP2 PUSH3 0xFFFFFF DUP4 AND DUP4 SUB PUSH2 0x496 JUMPI PUSH1 0xE4 CALLDATALOAD SWAP4 PUSH1 0x1 PUSH1 0x1 PUSH1 0xA0 SHL SUB SWAP1 DUP2 DUP7 AND DUP7 SUB PUSH2 0x1CC JUMPI POP SWAP2 PUSH1 0x20 SWAP7 SWAP4 SWAP2 DUP4 PUSH2 0x76E PUSH2 0x1C5 SWAP8 SWAP6 PUSH32 0x0 AND CALLER EQ PUSH2 0xE75 JUMP JUMPDEST DUP8 MLOAD SWAP2 TIMESTAMP DUP4 MSTORE AND SWAP1 PUSH32 0x422EDA3996A41C7CED7068F1D0BC80247C99A161AB5EA6EDF66AB8789CF14895 DUP10 PUSH1 0x24 CALLDATALOAD SWAP3 LOG3 PUSH2 0x104 CALLDATALOAD SWAP4 PUSH1 0xA4 CALLDATALOAD SWAP2 PUSH1 0x84 CALLDATALOAD SWAP2 PUSH2 0x1635 JUMP JUMPDEST DUP3 DUP5 CALLVALUE PUSH2 0x1CC JUMPI PUSH1 0x20 CALLDATASIZE PUSH1 0x3 NOT ADD SLT PUSH2 0x1CC JUMPI DUP2 PUSH2 0x255 SWAP2 PUSH1 0x1 PUSH1 0x1 PUSH1 0xA0 SHL SUB PUSH2 0x7D7 PUSH2 0xD11 JUMP JUMPDEST AND DUP2 MSTORE PUSH1 0x2 PUSH1 0x20 MSTORE KECCAK256 SWAP2 PUSH1 0xFF DUP4 SLOAD AND SWAP3 PUSH1 0x1 DUP2 ADD SLOAD SWAP5 PUSH1 0x2 DUP3 ADD SLOAD SWAP1 PUSH1 0x3 DUP4 ADD SLOAD SWAP3 ADD SLOAD SWAP3 MLOAD SWAP6 DUP7 SWAP6 DUP7 SWAP2 SWAP3 PUSH1 0x80 SWAP4 SWAP7 SWAP6 SWAP5 SWAP2 SWAP7 PUSH1 0xA0 DUP5 ADD SWAP8 ISZERO ISZERO DUP5 MSTORE PUSH1 0x20 DUP5 ADD MSTORE PUSH1 0x40 DUP4 ADD MSTORE PUSH1 0x60 DUP3 ADD MSTORE ADD MSTORE JUMP JUMPDEST POP POP CALLVALUE PUSH2 0x1D3 JUMPI PUSH1 0xC0 CALLDATASIZE PUSH1 0x3 NOT ADD SLT PUSH2 0x1D3 JUMPI PUSH2 0x842 PUSH2 0xD11 JUMP JUMPDEST PUSH2 0x84A PUSH2 0xD2C JUMP JUMPDEST SWAP1 PUSH2 0x853 PUSH2 0xD42 JUMP JUMPDEST PUSH1 0xA4 CALLDATALOAD SWAP5 PUSH3 0xFFFFFF DUP7 AND DUP7 SUB PUSH2 0x1CC JUMPI POP SWAP2 PUSH1 0x20 SWAP5 SWAP2 PUSH2 0x1C5 SWAP4 PUSH1 0x84 CALLDATALOAD SWAP3 PUSH1 0x64 CALLDATALOAD SWAP3 PUSH2 0xEC0 JUMP JUMPDEST POP POP CALLVALUE PUSH2 0x1D3 JUMPI DUP2 PUSH1 0x3 NOT CALLDATASIZE ADD SLT PUSH2 0x1D3 JUMPI PUSH1 0x20 SWAP1 MLOAD PUSH20 0x833589FCD6EDB6E08F4C7C32D4F71B54BDA02913 DUP2 MSTORE RETURN JUMPDEST DUP3 DUP5 CALLVALUE PUSH2 0x1CC JUMPI PUSH1 0x20 CALLDATASIZE PUSH1 0x3 NOT ADD SLT PUSH2 0x1CC JUMPI PUSH1 0x80 DUP3 PUSH2 0x255 SWAP3 PUSH1 0x1 PUSH1 0x1 PUSH1 0xA0 SHL SUB PUSH2 0x8D3 PUSH2 0xD11 JUMP JUMPDEST AND DUP2 MSTORE PUSH1 0x2 PUSH1 0x20 MSTORE KECCAK256 DUP4 MLOAD SWAP5 PUSH2 0x8E8 DUP7 PUSH2 0xDA8 JUMP JUMPDEST PUSH1 0xFF DUP3 SLOAD AND ISZERO ISZERO SWAP5 DUP6 DUP8 MSTORE PUSH1 0x1 DUP4 ADD SLOAD SWAP7 DUP8 PUSH1 0x20 DUP3 ADD MSTORE PUSH1 0x2 DUP5 ADD SLOAD SWAP3 DUP4 DUP4 DUP4 ADD MSTORE PUSH1 0x3 DUP6 ADD SLOAD SWAP5 DUP6 PUSH1 0x60 DUP5 ADD MSTORE ADD SLOAD SWAP5 DUP6 SWAP2 ADD MSTORE MLOAD SWAP6 DUP7 SWAP6 DUP7 SWAP2 SWAP3 PUSH1 0x80 SWAP4 SWAP7 SWAP6 SWAP5 SWAP2 SWAP7 PUSH1 0xA0 DUP5 ADD SWAP8 ISZERO ISZERO DUP5 MSTORE PUSH1 0x20 DUP5 ADD MSTORE PUSH1 0x40 DUP4 ADD MSTORE PUSH1 0x60 DUP3 ADD MSTORE ADD MSTORE JUMP JUMPDEST POP POP CALLVALUE PUSH2 0x1D3 JUMPI DUP1 PUSH1 0x3 NOT CALLDATASIZE ADD SLT PUSH2 0x1D3 JUMPI SWAP1 DUP2 PUSH1 0xFF PUSH1 0x20 SWAP4 PUSH2 0x969 PUSH2 0xD11 JUMP JUMPDEST SWAP4 PUSH2 0x972 PUSH2 0xD2C JUMP JUMPDEST PUSH1 0x1 PUSH1 0x1 PUSH1 0xA0 SHL SUB SWAP6 DUP7 AND DUP3 MSTORE PUSH1 0x3 DUP8 MSTORE DUP3 DUP3 KECCAK256 SWAP6 AND DUP1 DUP3 MSTORE SWAP5 DUP7 MSTORE KECCAK256 SLOAD AND SWAP2 DUP3 ISZERO PUSH2 0x9A2 JUMPI JUMPDEST POP MLOAD SWAP1 ISZERO ISZERO DUP2 MSTORE RETURN JUMPDEST PUSH20 0x833589FCD6EDB6E08F4C7C32D4F71B54BDA02913 EQ SWAP2 POP CODESIZE PUSH2 0x999 JUMP JUMPDEST POP POP CALLVALUE PUSH2 0x1D3 JUMPI DUP2 PUSH1 0x3 NOT CALLDATASIZE ADD SLT PUSH2 0x1D3 JUMPI PUSH1 0x20 SWAP1 MLOAD PUSH1 0x1 PUSH1 0x1 PUSH1 0xA0 SHL SUB PUSH32 0x0 AND DUP2 MSTORE RETURN JUMPDEST POP POP CALLVALUE PUSH2 0x1D3 JUMPI DUP2 PUSH1 0x3 NOT CALLDATASIZE ADD SLT PUSH2 0x1D3 JUMPI PUSH1 0x20 SWAP1 MLOAD PUSH3 0x30D40 DUP2 MSTORE RETURN JUMPDEST POP POP CALLVALUE PUSH2 0x1D3 JUMPI DUP2 PUSH1 0x3 NOT CALLDATASIZE ADD SLT PUSH2 0x1D3 JUMPI PUSH1 0x1 PUSH1 0x1 PUSH1 0xA0 SHL SUB PUSH1 0x20 SWAP3 SLOAD AND SWAP1 MLOAD SWAP1 DUP2 MSTORE RETURN JUMPDEST DUP4 SWAP2 POP CALLVALUE PUSH2 0x1D3 JUMPI DUP3 PUSH1 0x3 NOT CALLDATASIZE ADD SLT PUSH2 0x1D3 JUMPI PUSH2 0xA63 PUSH2 0xD11 JUMP JUMPDEST SWAP1 PUSH1 0x24 SWAP4 DUP5 CALLDATALOAD SWAP3 PUSH8 0xFFFFFFFFFFFFFFFF SWAP3 DUP4 DUP6 GT PUSH2 0x440 JUMPI CALLDATASIZE PUSH1 0x23 DUP7 ADD SLT ISZERO PUSH2 0x440 JUMPI DUP5 ADD CALLDATALOAD SWAP3 DUP4 GT PUSH2 0xC4D JUMPI CALLDATASIZE DUP7 DUP5 DUP7 ADD ADD GT PUSH2 0xC4D JUMPI PUSH1 0x1 PUSH1 0x1 PUSH1 0xA0 SHL SUB SWAP1 PUSH2 0xAD1 DUP3 PUSH32 0x0 AND CALLER EQ PUSH2 0xE75 JUMP JUMPDEST AND SWAP3 DUP4 DUP6 MSTORE PUSH1 0x1 SWAP6 PUSH1 0x20 SWAP2 DUP8 DUP4 MSTORE DUP4 DUP8 KECCAK256 PUSH2 0xAEC DUP2 SLOAD PUSH2 0xD6E JUMP JUMPDEST PUSH1 0x1F DUP2 GT PUSH2 0xC07 JUMPI JUMPDEST POP DUP8 PUSH1 0x1F DUP8 GT PUSH1 0x1 EQ PUSH2 0xB7D JUMPI SWAP2 DUP4 SWAP2 DUP8 DUP1 DUP12 SWAP13 DUP2 SWAP8 DUP3 SWAP8 PUSH32 0xA99D4E594E17FA9693A9C46535BFFB5FEBCFEC15D9474BD4301EFED02A4F25F6 SWAP14 SWAP15 SWAP5 PUSH2 0xB70 JUMPI JUMPDEST POP POP SHL SWAP1 PUSH1 0x0 NOT DUP7 PUSH1 0x3 SHL SHR NOT AND OR SWAP1 SSTORE JUMPDEST DUP6 MLOAD SWAP7 DUP6 DUP9 SWAP7 DUP8 MSTORE DUP7 ADD MSTORE ADD DUP5 DUP5 ADD CALLDATACOPY DUP2 DUP2 ADD DUP4 ADD DUP8 SWAP1 MSTORE PUSH1 0x1F ADD PUSH1 0x1F NOT AND DUP2 ADD SUB ADD SWAP1 LOG2 DUP1 RETURN JUMPDEST DUP7 ADD ADD CALLDATALOAD SWAP3 POP DUP6 DUP16 PUSH2 0xB36 JUMP JUMPDEST SWAP9 PUSH1 0x1F NOT DUP8 AND DUP3 DUP11 MSTORE DUP6 DUP11 KECCAK256 SWAP1 DUP11 JUMPDEST DUP2 DUP2 LT PUSH2 0xBF0 JUMPI POP SWAP2 DUP9 SWAP6 SWAP4 SWAP2 PUSH32 0xA99D4E594E17FA9693A9C46535BFFB5FEBCFEC15D9474BD4301EFED02A4F25F6 SWAP11 SWAP12 SWAP13 DUP8 DUP1 SWAP8 SWAP6 LT PUSH2 0xBD4 JUMPI JUMPDEST POP POP DUP5 DUP2 SHL ADD SWAP1 SSTORE PUSH2 0xB48 JUMP JUMPDEST DUP5 ADD DUP6 ADD CALLDATALOAD PUSH1 0x0 NOT PUSH1 0x3 DUP9 SWAP1 SHL PUSH1 0xF8 AND SHR NOT AND SWAP1 SSTORE DUP13 DUP1 PUSH2 0xBC7 JUMP JUMPDEST DUP6 DUP14 ADD DUP8 ADD CALLDATALOAD DUP4 SSTORE SWAP12 DUP8 ADD SWAP12 SWAP2 DUP4 ADD SWAP2 DUP8 ADD PUSH2 0xB8C JUMP JUMPDEST DUP2 DUP10 MSTORE DUP5 DUP10 KECCAK256 PUSH1 0x1F DUP9 ADD PUSH1 0x5 SHR DUP2 ADD SWAP2 DUP7 DUP10 LT PUSH2 0xC43 JUMPI JUMPDEST PUSH1 0x1F ADD PUSH1 0x5 SHR ADD SWAP1 DUP11 SWAP1 JUMPDEST DUP3 DUP2 LT PUSH2 0xC38 JUMPI POP POP PUSH2 0xAF5 JUMP JUMPDEST DUP11 DUP2 SSTORE ADD DUP11 SWAP1 PUSH2 0xC2A JUMP JUMPDEST SWAP1 SWAP2 POP DUP2 SWAP1 PUSH2 0xC1F JUMP JUMPDEST DUP5 DUP1 REVERT JUMPDEST POP POP CALLVALUE PUSH2 0x1D3 JUMPI PUSH1 0x60 CALLDATASIZE PUSH1 0x3 NOT ADD SLT PUSH2 0x1D3 JUMPI PUSH2 0xC6C PUSH2 0xD11 JUMP JUMPDEST PUSH2 0xC74 PUSH2 0xD2C JUMP JUMPDEST SWAP2 PUSH1 0x44 CALLDATALOAD DUP1 ISZERO ISZERO DUP1 DUP3 SUB PUSH2 0x440 JUMPI PUSH32 0xD8D7B6D387FCA91D5BB6EDB4EAF305462CE76A1AF2ACAE4F905A7D12689031F7 SWAP3 PUSH2 0xD09 PUSH1 0x20 SWAP4 PUSH1 0x1 PUSH1 0x1 PUSH1 0xA0 SHL SUB DUP1 SWAP8 PUSH2 0xCE1 DUP3 PUSH32 0x0 AND CALLER EQ PUSH2 0xE75 JUMP JUMPDEST AND SWAP7 DUP8 DUP11 MSTORE PUSH1 0x3 DUP7 MSTORE DUP4 DUP11 KECCAK256 SWAP9 AND SWAP8 DUP9 DUP11 MSTORE DUP6 MSTORE DUP3 DUP10 KECCAK256 SWAP1 PUSH1 0xFF DUP1 NOT DUP4 SLOAD AND SWAP2 ISZERO ISZERO AND OR SWAP1 SSTORE JUMP JUMPDEST MLOAD SWAP1 DUP2 MSTORE LOG3 DUP1 RETURN JUMPDEST PUSH1 0x4 CALLDATALOAD SWAP1 PUSH1 0x1 PUSH1 0x1 PUSH1 0xA0 SHL SUB DUP3 AND DUP3 SUB PUSH2 0xD27 JUMPI JUMP JUMPDEST PUSH1 0x0 DUP1 REVERT JUMPDEST PUSH1 0x24 CALLDATALOAD SWAP1 PUSH1 0x1 PUSH1 0x1 PUSH1 0xA0 SHL SUB DUP3 AND DUP3 SUB PUSH2 0xD27 JUMPI JUMP JUMPDEST PUSH1 0x44 CALLDATALOAD SWAP1 PUSH1 0x1 PUSH1 0x1 PUSH1 0xA0 SHL SUB DUP3 AND DUP3 SUB PUSH2 0xD27 JUMPI JUMP JUMPDEST PUSH1 0x64 CALLDATALOAD SWAP1 PUSH1 0x1 PUSH1 0x1 PUSH1 0xA0 SHL SUB DUP3 AND DUP3 SUB PUSH2 0xD27 JUMPI JUMP JUMPDEST SWAP1 PUSH1 0x1 DUP3 DUP2 SHR SWAP3 AND DUP1 ISZERO PUSH2 0xD9E JUMPI JUMPDEST PUSH1 0x20 DUP4 LT EQ PUSH2 0xD88 JUMPI JUMP JUMPDEST PUSH4 0x4E487B71 PUSH1 0xE0 SHL PUSH1 0x0 MSTORE PUSH1 0x22 PUSH1 0x4 MSTORE PUSH1 0x24 PUSH1 0x0 REVERT JUMPDEST SWAP2 PUSH1 0x7F AND SWAP2 PUSH2 0xD7D JUMP JUMPDEST PUSH1 0xA0 DUP2 ADD SWAP1 DUP2 LT PUSH8 0xFFFFFFFFFFFFFFFF DUP3 GT OR PUSH2 0xDC4 JUMPI PUSH1 0x40 MSTORE JUMP JUMPDEST PUSH4 0x4E487B71 PUSH1 0xE0 SHL PUSH1 0x0 MSTORE PUSH1 0x41 PUSH1 0x4 MSTORE PUSH1 0x24 PUSH1 0x0 REVERT JUMPDEST PUSH2 0x100 DUP2 ADD SWAP1 DUP2 LT PUSH8 0xFFFFFFFFFFFFFFFF DUP3 GT OR PUSH2 0xDC4 JUMPI PUSH1 0x40 MSTORE JUMP JUMPDEST PUSH1 0x80 DUP2 ADD SWAP1 DUP2 LT PUSH8 0xFFFFFFFFFFFFFFFF DUP3 GT OR PUSH2 0xDC4 JUMPI PUSH1 0x40 MSTORE JUMP JUMPDEST SWAP1 PUSH1 0x1F DUP1 NOT SWAP2 ADD AND DUP2 ADD SWAP1 DUP2 LT PUSH8 0xFFFFFFFFFFFFFFFF DUP3 GT OR PUSH2 0xDC4 JUMPI PUSH1 0x40 MSTORE JUMP JUMPDEST SWAP2 SWAP1 DUP3 MLOAD SWAP3 DUP4 DUP3 MSTORE PUSH1 0x0 JUMPDEST DUP5 DUP2 LT PUSH2 0xE61 JUMPI POP POP DUP3 PUSH1 0x0 PUSH1 0x20 DUP1 SWAP5 SWAP6 DUP5 ADD ADD MSTORE PUSH1 0x1F DUP1 NOT SWAP2 ADD AND ADD ADD SWAP1 JUMP JUMPDEST PUSH1 0x20 DUP2 DUP4 ADD DUP2 ADD MLOAD DUP5 DUP4 ADD DUP3 ADD MSTORE ADD PUSH2 0xE40 JUMP JUMPDEST ISZERO PUSH2 0xE7C JUMPI JUMP JUMPDEST PUSH1 0x64 PUSH1 0x40 MLOAD PUSH3 0x461BCD PUSH1 0xE5 SHL DUP2 MSTORE PUSH1 0x20 PUSH1 0x4 DUP3 ADD MSTORE PUSH1 0xD PUSH1 0x24 DUP3 ADD MSTORE PUSH32 0x4F6E6C79206578656375746F7200000000000000000000000000000000000000 PUSH1 0x44 DUP3 ADD MSTORE REVERT JUMPDEST SWAP3 SWAP2 SWAP5 SWAP1 SWAP4 PUSH2 0xEF9 PUSH1 0x1 PUSH1 0x1 PUSH1 0xA0 SHL SUB PUSH32 0x0 AND CALLER EQ PUSH2 0xE75 JUMP JUMPDEST PUSH1 0x1 PUSH1 0x1 PUSH1 0xA0 SHL SUB DUP5 AND PUSH1 0x0 MSTORE PUSH1 0x2 PUSH1 0x20 MSTORE PUSH1 0xFF PUSH1 0x40 PUSH1 0x0 KECCAK256 SLOAD AND ISZERO PUSH2 0x146D JUMPI JUMPDEST PUSH1 0x1 PUSH1 0x1 PUSH1 0xA0 SHL SUB DUP5 AND PUSH1 0x0 MSTORE PUSH1 0x3 PUSH1 0x20 MSTORE PUSH1 0x40 PUSH1 0x0 KECCAK256 PUSH1 0x1 PUSH1 0x1 PUSH1 0xA0 SHL SUB DUP8 AND PUSH1 0x0 MSTORE PUSH1 0x20 MSTORE PUSH1 0xFF PUSH1 0x40 PUSH1 0x0 KECCAK256 SLOAD AND DUP1 ISZERO PUSH2 0x1447 JUMPI JUMPDEST ISZERO PUSH2 0x1403 JUMPI PUSH20 0x833589FCD6EDB6E08F4C7C32D4F71B54BDA02913 PUSH1 0x1 PUSH1 0x1 PUSH1 0xA0 SHL SUB DUP7 AND SUB PUSH2 0x13BF JUMPI PUSH3 0x30D40 DUP4 LT PUSH2 0x137B JUMPI PUSH2 0xFDA PUSH1 0x20 PUSH1 0x1 PUSH1 0x1 PUSH1 0xA0 SHL SUB PUSH1 0x0 SLOAD AND PUSH1 0x40 MLOAD SWAP1 PUSH4 0xA9059CBB PUSH1 0xE0 SHL DUP4 DUP4 ADD MSTORE PUSH1 0x24 DUP3 ADD MSTORE PUSH3 0x30D40 PUSH1 0x44 DUP3 ADD MSTORE PUSH1 0x44 DUP2 MSTORE PUSH2 0xFC0 DUP2 PUSH2 0xDF7 JUMP JUMPDEST PUSH1 0x40 MLOAD DUP1 SWAP4 DUP2 SWAP3 PUSH4 0x468721A7 PUSH1 0xE0 SHL DUP4 MSTORE PUSH1 0x4 DUP4 ADD PUSH2 0x15C0 JUMP JUMPDEST SUB DUP2 PUSH1 0x0 PUSH1 0x1 PUSH1 0x1 PUSH1 0xA0 SHL SUB DUP11 AND GAS CALL SWAP1 DUP2 ISZERO PUSH2 0x1299 JUMPI PUSH1 0x0 SWAP2 PUSH2 0x135C JUMPI JUMPDEST POP ISZERO PUSH2 0x1318 JUMPI PUSH1 0x1 PUSH1 0x1 PUSH1 0xA0 SHL SUB DUP5 AND PUSH1 0x0 MSTORE PUSH1 0x2 PUSH1 0x20 MSTORE PUSH1 0x3 PUSH1 0x40 PUSH1 0x0 KECCAK256 ADD DUP1 SLOAD SWAP1 PUSH3 0x30D40 DUP3 ADD DUP1 SWAP3 GT PUSH2 0x124F JUMPI SSTORE PUSH1 0x1 PUSH1 0x1 PUSH1 0xA0 SHL SUB PUSH1 0x0 SLOAD AND PUSH1 0x40 MLOAD SWAP1 PUSH3 0x30D40 DUP3 MSTORE PUSH1 0x20 DUP3 ADD MSTORE PUSH32 0xFF8CE3DE7612757F5DE36CA8B37F26C739C36EAA2EACC0603C6A15D8A2B5E490 PUSH1 0x40 PUSH1 0x1 PUSH1 0x1 PUSH1 0xA0 SHL SUB DUP8 AND SWAP3 LOG2 PUSH3 0x30D3F NOT DUP4 ADD SWAP3 DUP4 GT PUSH2 0x124F JUMPI PUSH2 0x1152 PUSH2 0x1160 PUSH2 0x117A SWAP4 PUSH1 0x20 SWAP4 PUSH2 0x1099 DUP10 DUP10 PUSH2 0x1BA7 JUMP JUMPDEST PUSH3 0xFFFFFF PUSH1 0x40 MLOAD SWAP3 PUSH2 0x10AA DUP5 PUSH2 0xDDA JUMP JUMPDEST PUSH1 0x1 PUSH1 0x1 PUSH1 0xA0 SHL SUB DUP12 DUP2 AND DUP6 MSTORE DUP13 DUP2 AND DUP9 DUP7 ADD MSTORE SWAP2 AND PUSH1 0x40 DUP1 DUP6 ADD SWAP2 DUP3 MSTORE DUP11 DUP4 AND PUSH1 0x60 DUP7 ADD SWAP1 DUP2 MSTORE TIMESTAMP PUSH1 0x80 DUP8 ADD SWAP1 DUP2 MSTORE PUSH1 0xA0 DUP8 ADD DUP13 DUP2 MSTORE PUSH1 0xC0 DUP9 ADD SWAP7 DUP8 MSTORE PUSH1 0x0 PUSH1 0xE0 DUP10 ADD SWAP1 DUP2 MSTORE SWAP4 MLOAD PUSH4 0x414BF389 PUSH1 0xE0 SHL DUP2 DUP14 ADD MSTORE DUP9 MLOAD DUP8 AND PUSH1 0x24 DUP3 ADD MSTORE PUSH1 0x20 SWAP1 SWAP9 ADD MLOAD DUP7 AND PUSH1 0x44 DUP10 ADD MSTORE SWAP4 MLOAD PUSH3 0xFFFFFF AND PUSH1 0x64 DUP9 ADD MSTORE SWAP1 MLOAD DUP5 AND PUSH1 0x84 DUP8 ADD MSTORE MLOAD PUSH1 0xA4 DUP7 ADD MSTORE SWAP1 MLOAD PUSH1 0xC4 DUP6 ADD MSTORE SWAP2 MLOAD PUSH1 0xE4 DUP5 ADD MSTORE SWAP1 MLOAD AND PUSH2 0x104 DUP3 ADD MSTORE SWAP2 DUP3 SWAP1 PUSH2 0x124 DUP3 ADD SWAP1 JUMP JUMPDEST SUB PUSH1 0x1F NOT DUP2 ADD DUP4 MSTORE DUP3 PUSH2 0xE13 JUMP JUMPDEST PUSH1 0x40 MLOAD DUP1 SWAP4 DUP2 SWAP3 PUSH4 0x468721A7 PUSH1 0xE0 SHL DUP4 MSTORE PUSH1 0x4 DUP4 ADD PUSH2 0x15FD JUMP JUMPDEST SUB DUP2 PUSH1 0x0 PUSH1 0x1 PUSH1 0x1 PUSH1 0xA0 SHL SUB DUP9 AND GAS CALL SWAP1 DUP2 ISZERO PUSH2 0x1299 JUMPI PUSH1 0x0 SWAP2 PUSH2 0x12E9 JUMPI JUMPDEST POP ISZERO PUSH2 0x12A5 JUMPI PUSH1 0x40 MLOAD SWAP4 PUSH4 0x70A08231 PUSH1 0xE0 SHL DUP6 MSTORE PUSH1 0x1 PUSH1 0x1 PUSH1 0xA0 SHL SUB DUP4 AND PUSH1 0x4 DUP7 ADD MSTORE PUSH1 0x20 DUP6 PUSH1 0x24 DUP2 PUSH1 0x1 PUSH1 0x1 PUSH1 0xA0 SHL SUB DUP6 AND GAS STATICCALL SWAP5 DUP6 ISZERO PUSH2 0x1299 JUMPI PUSH1 0x0 SWAP6 PUSH2 0x1265 JUMPI JUMPDEST POP PUSH1 0x1 PUSH1 0x1 PUSH1 0xA0 SHL SUB DUP4 AND PUSH1 0x0 MSTORE PUSH1 0x2 PUSH1 0x20 MSTORE PUSH1 0x2 PUSH1 0x40 PUSH1 0x0 KECCAK256 ADD SWAP1 DUP2 SLOAD SWAP1 PUSH1 0x0 NOT DUP3 EQ PUSH2 0x124F JUMPI PUSH1 0x1 PUSH1 0x1 PUSH1 0xA0 SHL SUB DUP1 DUP1 SWAP3 PUSH32 0x3FCFB2F2E0146D5BE7268F9E4CD3C4C0CE3428F68805DB227B7FC378DB7519AC SWAP6 PUSH1 0x1 PUSH1 0x40 SWAP7 ADD SWAP1 SSTORE DUP5 MLOAD SWAP7 DUP8 MSTORE DUP10 PUSH1 0x20 DUP9 ADD MSTORE AND SWAP7 AND SWAP5 AND SWAP3 LOG4 SWAP1 JUMP JUMPDEST PUSH4 0x4E487B71 PUSH1 0xE0 SHL PUSH1 0x0 MSTORE PUSH1 0x11 PUSH1 0x4 MSTORE PUSH1 0x24 PUSH1 0x0 REVERT JUMPDEST SWAP1 SWAP5 POP PUSH1 0x20 DUP2 RETURNDATASIZE PUSH1 0x20 GT PUSH2 0x1291 JUMPI JUMPDEST DUP2 PUSH2 0x1281 PUSH1 0x20 SWAP4 DUP4 PUSH2 0xE13 JUMP JUMPDEST DUP2 ADD SUB SLT PUSH2 0xD27 JUMPI MLOAD SWAP4 CODESIZE PUSH2 0x11DD JUMP JUMPDEST RETURNDATASIZE SWAP2 POP PUSH2 0x1274 JUMP JUMPDEST PUSH1 0x40 MLOAD RETURNDATASIZE PUSH1 0x0 DUP3 RETURNDATACOPY RETURNDATASIZE SWAP1 REVERT JUMPDEST PUSH1 0x64 PUSH1 0x40 MLOAD PUSH3 0x461BCD PUSH1 0xE5 SHL DUP2 MSTORE PUSH1 0x20 PUSH1 0x4 DUP3 ADD MSTORE PUSH1 0xB PUSH1 0x24 DUP3 ADD MSTORE PUSH32 0x53776170206661696C6564000000000000000000000000000000000000000000 PUSH1 0x44 DUP3 ADD MSTORE REVERT JUMPDEST PUSH2 0x130B SWAP2 POP PUSH1 0x20 RETURNDATASIZE PUSH1 0x20 GT PUSH2 0x1311 JUMPI JUMPDEST PUSH2 0x1303 DUP2 DUP4 PUSH2 0xE13 JUMP JUMPDEST DUP2 ADD SWAP1 PUSH2 0x15A8 JUMP JUMPDEST CODESIZE PUSH2 0x1199 JUMP JUMPDEST POP RETURNDATASIZE PUSH2 0x12F9 JUMP JUMPDEST PUSH1 0x64 PUSH1 0x40 MLOAD PUSH3 0x461BCD PUSH1 0xE5 SHL DUP2 MSTORE PUSH1 0x20 PUSH1 0x4 DUP3 ADD MSTORE PUSH1 0x15 PUSH1 0x24 DUP3 ADD MSTORE PUSH32 0x46656520636F6C6C656374696F6E206661696C65640000000000000000000000 PUSH1 0x44 DUP3 ADD MSTORE REVERT JUMPDEST PUSH2 0x1375 SWAP2 POP PUSH1 0x20 RETURNDATASIZE PUSH1 0x20 GT PUSH2 0x1311 JUMPI PUSH2 0x1303 DUP2 DUP4 PUSH2 0xE13 JUMP JUMPDEST CODESIZE PUSH2 0xFF9 JUMP JUMPDEST PUSH1 0x64 PUSH1 0x40 MLOAD PUSH3 0x461BCD PUSH1 0xE5 SHL DUP2 MSTORE PUSH1 0x20 PUSH1 0x4 DUP3 ADD MSTORE PUSH1 0x18 PUSH1 0x24 DUP3 ADD MSTORE PUSH32 0x416D6F756E7420746F6F20736D616C6C20666F72206665650000000000000000 PUSH1 0x44 DUP3 ADD MSTORE REVERT JUMPDEST PUSH1 0x64 PUSH1 0x40 MLOAD PUSH3 0x461BCD PUSH1 0xE5 SHL DUP2 MSTORE PUSH1 0x20 PUSH1 0x4 DUP3 ADD MSTORE PUSH1 0x12 PUSH1 0x24 DUP3 ADD MSTORE PUSH32 0x4F6E6C79205553444320617320696E7075740000000000000000000000000000 PUSH1 0x44 DUP3 ADD MSTORE REVERT JUMPDEST PUSH1 0x64 PUSH1 0x40 MLOAD PUSH3 0x461BCD PUSH1 0xE5 SHL DUP2 MSTORE PUSH1 0x20 PUSH1 0x4 DUP3 ADD MSTORE PUSH1 0x15 PUSH1 0x24 DUP3 ADD MSTORE PUSH32 0x546F6B656E206E6F742077686974656C69737465640000000000000000000000 PUSH1 0x44 DUP3 ADD MSTORE REVERT JUMPDEST POP PUSH20 0x833589FCD6EDB6E08F4C7C32D4F71B54BDA02913 PUSH1 0x1 PUSH1 0x1 PUSH1 0xA0 SHL SUB DUP8 AND EQ PUSH2 0xF51 JUMP JUMPDEST PUSH1 0x40 MLOAD PUSH4 0x70A08231 PUSH1 0xE0 SHL DUP2 MSTORE PUSH1 0x1 PUSH1 0x1 PUSH1 0xA0 SHL SUB DUP6 AND PUSH1 0x4 DUP3 ADD MSTORE PUSH1 0x20 DUP2 PUSH1 0x24 DUP2 PUSH20 0x833589FCD6EDB6E08F4C7C32D4F71B54BDA02913 GAS STATICCALL SWAP1 DUP2 ISZERO PUSH2 0x1299 JUMPI PUSH1 0x0 SWAP2 PUSH2 0x1569 JUMPI JUMPDEST POP PUSH1 0x40 MLOAD PUSH2 0x14C2 DUP2 PUSH2 0xDA8 JUMP JUMPDEST PUSH1 0x1 DUP2 MSTORE PUSH1 0x4 PUSH1 0x20 DUP3 ADD DUP4 DUP2 MSTORE PUSH1 0x40 DUP4 ADD PUSH1 0x0 DUP2 MSTORE PUSH1 0x60 DUP5 ADD SWAP1 PUSH1 0x0 DUP3 MSTORE PUSH1 0x80 DUP6 ADD SWAP3 PUSH1 0x0 DUP5 MSTORE PUSH1 0x1 PUSH1 0x1 PUSH1 0xA0 SHL SUB DUP12 AND PUSH1 0x0 MSTORE PUSH1 0x2 PUSH1 0x20 MSTORE PUSH2 0x1519 PUSH1 0x40 PUSH1 0x0 KECCAK256 SWAP7 MLOAD ISZERO ISZERO DUP8 SWAP1 PUSH1 0xFF DUP1 NOT DUP4 SLOAD AND SWAP2 ISZERO ISZERO AND OR SWAP1 SSTORE JUMP JUMPDEST MLOAD PUSH1 0x1 DUP7 ADD SSTORE MLOAD PUSH1 0x2 DUP6 ADD SSTORE MLOAD PUSH1 0x3 DUP5 ADD SSTORE MLOAD SWAP2 ADD SSTORE PUSH1 0x40 MLOAD SWAP1 DUP2 MSTORE PUSH32 0x6BFC790E212059FC023E662BAF88ADF0042BB30938F575F4B15EA4F5A7B75C0C PUSH1 0x20 PUSH1 0x1 PUSH1 0x1 PUSH1 0xA0 SHL SUB DUP8 AND SWAP3 LOG2 PUSH2 0xF1A JUMP JUMPDEST SWAP1 POP PUSH1 0x20 DUP2 RETURNDATASIZE PUSH1 0x20 GT PUSH2 0x1593 JUMPI JUMPDEST DUP2 PUSH2 0x1584 PUSH1 0x20 SWAP4 DUP4 PUSH2 0xE13 JUMP JUMPDEST DUP2 ADD SUB SLT PUSH2 0xD27 JUMPI MLOAD CODESIZE PUSH2 0x14B5 JUMP JUMPDEST RETURNDATASIZE SWAP2 POP PUSH2 0x1577 JUMP JUMPDEST SWAP2 SWAP1 DUP3 SUB SWAP2 DUP3 GT PUSH2 0x124F JUMPI JUMP JUMPDEST SWAP1 DUP2 PUSH1 0x20 SWAP2 SUB SLT PUSH2 0xD27 JUMPI MLOAD DUP1 ISZERO ISZERO DUP2 SUB PUSH2 0xD27 JUMPI SWAP1 JUMP JUMPDEST SWAP2 SWAP1 PUSH1 0x60 PUSH2 0x15F8 PUSH1 0x0 SWAP3 PUSH20 0x833589FCD6EDB6E08F4C7C32D4F71B54BDA02913 DUP7 MSTORE DUP4 PUSH1 0x20 DUP8 ADD MSTORE PUSH1 0x80 PUSH1 0x40 DUP8 ADD MSTORE PUSH1 0x80 DUP7 ADD SWAP1 PUSH2 0xE35 JUMP JUMPDEST SWAP4 ADD MSTORE JUMP JUMPDEST SWAP2 SWAP1 PUSH1 0x60 PUSH2 0x15F8 PUSH1 0x0 SWAP3 PUSH20 0x2626664C2603336E57B271C5C0B26F421741E481 DUP7 MSTORE DUP4 PUSH1 0x20 DUP8 ADD MSTORE PUSH1 0x80 PUSH1 0x40 DUP8 ADD MSTORE PUSH1 0x80 DUP7 ADD SWAP1 PUSH2 0xE35 JUMP JUMPDEST SWAP1 SWAP2 SWAP3 SWAP4 SWAP5 PUSH1 0x1 PUSH1 0x1 PUSH1 0xA0 SHL SUB SWAP5 PUSH2 0x1670 DUP7 PUSH32 0x0 AND CALLER EQ PUSH2 0xE75 JUMP JUMPDEST DUP6 DUP4 AND SWAP6 PUSH1 0x0 SWAP1 DUP8 DUP3 MSTORE PUSH1 0x20 SWAP3 PUSH1 0x2 DUP5 MSTORE PUSH1 0x40 SWAP5 PUSH1 0xFF DUP7 DUP6 KECCAK256 SLOAD AND ISZERO PUSH2 0x1B64 JUMPI DUP3 AND SWAP6 DUP7 ISZERO PUSH2 0x1B21 JUMPI DUP8 PUSH2 0x16A3 SWAP2 PUSH2 0x1BA7 JUMP JUMPDEST DUP5 MLOAD SWAP1 PUSH4 0x70A08231 PUSH1 0xE0 SHL SWAP1 DUP2 DUP4 MSTORE DUP11 PUSH1 0x4 DUP5 ADD MSTORE PUSH20 0x833589FCD6EDB6E08F4C7C32D4F71B54BDA02913 SWAP4 DUP7 DUP5 PUSH1 0x24 DUP2 DUP9 GAS STATICCALL SWAP4 DUP5 ISZERO PUSH2 0x1B17 JUMPI DUP7 SWAP5 PUSH2 0x1AE8 JUMPI JUMPDEST POP DUP8 MLOAD SWAP10 PUSH2 0x16F1 DUP12 PUSH2 0xDDA JUMP JUMPDEST AND SWAP12 DUP13 DUP11 MSTORE DUP5 DUP8 DUP12 ADD MSTORE PUSH3 0xFFFFFF AND DUP8 DUP11 ADD MSTORE DUP11 PUSH1 0x60 DUP11 ADD MSTORE TIMESTAMP PUSH1 0x80 DUP11 ADD MSTORE DUP10 PUSH1 0xA0 DUP11 ADD MSTORE PUSH1 0xC0 DUP10 ADD MSTORE DUP4 PUSH1 0xE0 DUP10 ADD MSTORE DUP6 MLOAD DUP1 SWAP9 DUP7 DUP3 ADD PUSH4 0x414BF389 PUSH1 0xE0 SHL SWAP1 MSTORE PUSH1 0x24 DUP3 ADD SWAP1 PUSH2 0x17A1 SWAP1 SWAP2 PUSH1 0xE0 PUSH2 0x100 DUP3 ADD SWAP4 DUP2 PUSH1 0x1 PUSH1 0x1 PUSH1 0xA0 SHL SUB SWAP2 DUP3 DUP2 MLOAD AND DUP6 MSTORE DUP3 PUSH1 0x20 DUP3 ADD MLOAD AND PUSH1 0x20 DUP7 ADD MSTORE PUSH3 0xFFFFFF PUSH1 0x40 DUP3 ADD MLOAD AND PUSH1 0x40 DUP7 ADD MSTORE DUP3 PUSH1 0x60 DUP3 ADD MLOAD AND PUSH1 0x60 DUP7 ADD MSTORE PUSH1 0x80 DUP2 ADD MLOAD PUSH1 0x80 DUP7 ADD MSTORE PUSH1 0xA0 DUP2 ADD MLOAD PUSH1 0xA0 DUP7 ADD MSTORE PUSH1 0xC0 DUP2 ADD MLOAD PUSH1 0xC0 DUP7 ADD MSTORE ADD MLOAD AND SWAP2 ADD MSTORE JUMP JUMPDEST SUB PUSH1 0x1F NOT DUP2 ADD DUP10 MSTORE PUSH2 0x17B3 SWAP1 DUP10 PUSH2 0xE13 JUMP JUMPDEST DUP6 MLOAD DUP6 DUP2 DUP13 DUP2 DUP9 DUP2 PUSH4 0x468721A7 PUSH1 0xE0 SHL SWAP15 DUP16 DUP3 MSTORE PUSH1 0x4 DUP3 ADD SWAP1 PUSH2 0x17D5 SWAP2 PUSH2 0x15FD JUMP JUMPDEST SUB SWAP3 GAS CALL SWAP1 DUP2 ISZERO PUSH2 0x1ADE JUMPI DUP6 SWAP2 PUSH2 0x1AC1 JUMPI JUMPDEST POP ISZERO PUSH2 0x1A7E JUMPI DUP5 SWAP1 PUSH1 0x24 DUP8 MLOAD DUP1 SWAP6 DUP2 SWAP4 DUP3 MSTORE DUP14 PUSH1 0x4 DUP4 ADD MSTORE GAS STATICCALL DUP1 ISZERO PUSH2 0x19EC JUMPI DUP4 SWAP1 PUSH2 0x1A4D JUMPI JUMPDEST PUSH2 0x1818 SWAP3 POP PUSH2 0x159B JUMP JUMPDEST SWAP9 DUP1 DUP11 GT PUSH2 0x182D JUMPI JUMPDEST POP POP POP POP POP POP POP POP POP SWAP1 JUMP JUMPDEST PUSH2 0x1837 SWAP1 DUP11 PUSH2 0x159B JUMP JUMPDEST SWAP4 PUSH2 0x7D0 DUP1 DUP7 MUL SWAP1 DUP7 DUP3 DIV EQ DUP7 ISZERO OR ISZERO PUSH2 0x1A39 JUMPI PUSH2 0x2710 SWAP1 DIV SWAP6 DUP6 DUP8 GT PUSH2 0x19F6 JUMPI SWAP1 DUP11 SWAP4 SWAP3 SWAP2 DUP8 PUSH2 0x18AA JUMPI JUMPDEST POP POP DUP4 MLOAD SWAP7 DUP8 MSTORE POP DUP6 ADD MSTORE DUP4 ADD MSTORE PUSH1 0x60 DUP3 ADD MSTORE PUSH32 0xA12C8F9B9CB538F29C4A1AF155D26D6337F896967B74B297F75F1864B7194085 SWAP1 PUSH1 0x80 SWAP1 LOG3 CODESIZE DUP1 DUP1 DUP1 DUP1 DUP1 DUP1 DUP1 DUP1 PUSH2 0x1821 JUMP JUMPDEST DUP4 SWAP5 POP SWAP3 PUSH2 0x18EE SWAP2 SWAP3 SWAP4 DUP7 MLOAD SWAP1 PUSH4 0xA9059CBB PUSH1 0xE0 SHL DUP4 DUP4 ADD MSTORE DUP5 PUSH1 0x24 DUP4 ADD MSTORE DUP10 PUSH1 0x44 DUP4 ADD MSTORE PUSH1 0x44 DUP3 MSTORE PUSH2 0x18DC DUP3 PUSH2 0xDF7 JUMP JUMPDEST DUP8 MLOAD SWAP4 DUP5 SWAP3 DUP4 SWAP3 DUP4 MSTORE PUSH1 0x4 DUP4 ADD PUSH2 0x15C0 JUMP JUMPDEST SUB DUP2 DUP7 DUP14 GAS CALL SWAP1 DUP2 ISZERO PUSH2 0x19EC JUMPI DUP4 SWAP2 PUSH2 0x19CF JUMPI JUMPDEST POP ISZERO PUSH2 0x198C JUMPI DUP8 PUSH32 0xDE542754CBE64E85D7631FD8696B87E68CC3CC5521243EFB5CB15687287BA4FA DUP5 DUP7 MLOAD DUP10 DUP2 MSTORE LOG3 DUP7 DUP2 MSTORE PUSH1 0x2 DUP3 MSTORE PUSH1 0x4 DUP4 DUP3 KECCAK256 ADD DUP1 SLOAD SWAP2 DUP7 DUP4 ADD DUP1 SWAP4 GT PUSH2 0x1978 JUMPI POP SSTORE DUP8 SWAP1 DUP2 PUSH1 0x80 PUSH32 0xA12C8F9B9CB538F29C4A1AF155D26D6337F896967B74B297F75F1864B7194085 PUSH2 0x1863 JUMP JUMPDEST DUP1 PUSH4 0x4E487B71 PUSH1 0xE0 SHL PUSH1 0x24 SWAP3 MSTORE PUSH1 0x11 PUSH1 0x4 MSTORE REVERT JUMPDEST PUSH1 0x64 DUP4 DUP6 MLOAD SWAP1 PUSH3 0x461BCD PUSH1 0xE5 SHL DUP3 MSTORE PUSH1 0x4 DUP3 ADD MSTORE PUSH1 0x1C PUSH1 0x24 DUP3 ADD MSTORE PUSH32 0x50726F666974207368617265207472616E73666572206661696C656400000000 PUSH1 0x44 DUP3 ADD MSTORE REVERT JUMPDEST PUSH2 0x19E6 SWAP2 POP DUP5 RETURNDATASIZE DUP7 GT PUSH2 0x1311 JUMPI PUSH2 0x1303 DUP2 DUP4 PUSH2 0xE13 JUMP JUMPDEST CODESIZE PUSH2 0x1902 JUMP JUMPDEST DUP6 MLOAD RETURNDATASIZE DUP6 DUP3 RETURNDATACOPY RETURNDATASIZE SWAP1 REVERT JUMPDEST PUSH1 0x64 DUP5 DUP7 MLOAD SWAP1 PUSH3 0x461BCD PUSH1 0xE5 SHL DUP3 MSTORE PUSH1 0x4 DUP3 ADD MSTORE PUSH1 0x14 PUSH1 0x24 DUP3 ADD MSTORE PUSH32 0x496E76616C69642070726F666974207368617265000000000000000000000000 PUSH1 0x44 DUP3 ADD MSTORE REVERT JUMPDEST PUSH1 0x24 DUP4 PUSH4 0x4E487B71 PUSH1 0xE0 SHL DUP2 MSTORE PUSH1 0x11 PUSH1 0x4 MSTORE REVERT JUMPDEST POP SWAP1 DUP4 DUP2 DUP2 RETURNDATASIZE DUP4 GT PUSH2 0x1A77 JUMPI JUMPDEST PUSH2 0x1A64 DUP2 DUP4 PUSH2 0xE13 JUMP JUMPDEST DUP2 ADD SUB SLT PUSH2 0x2C1 JUMPI SWAP1 PUSH2 0x1818 SWAP2 MLOAD PUSH2 0x180E JUMP JUMPDEST POP RETURNDATASIZE PUSH2 0x1A5A JUMP JUMPDEST PUSH1 0x64 DUP6 DUP8 MLOAD SWAP1 PUSH3 0x461BCD PUSH1 0xE5 SHL DUP3 MSTORE PUSH1 0x4 DUP3 ADD MSTORE PUSH1 0x11 PUSH1 0x24 DUP3 ADD MSTORE PUSH32 0x436C6F73652073776170206661696C6564000000000000000000000000000000 PUSH1 0x44 DUP3 ADD MSTORE REVERT JUMPDEST PUSH2 0x1AD8 SWAP2 POP DUP7 RETURNDATASIZE DUP9 GT PUSH2 0x1311 JUMPI PUSH2 0x1303 DUP2 DUP4 PUSH2 0xE13 JUMP JUMPDEST CODESIZE PUSH2 0x17E7 JUMP JUMPDEST DUP8 MLOAD RETURNDATASIZE DUP8 DUP3 RETURNDATACOPY RETURNDATASIZE SWAP1 REVERT JUMPDEST SWAP1 SWAP4 POP DUP7 DUP2 DUP2 RETURNDATASIZE DUP4 GT PUSH2 0x1B10 JUMPI JUMPDEST PUSH2 0x1B00 DUP2 DUP4 PUSH2 0xE13 JUMP JUMPDEST DUP2 ADD SUB SLT PUSH2 0x440 JUMPI MLOAD SWAP3 CODESIZE PUSH2 0x16E4 JUMP JUMPDEST POP RETURNDATASIZE PUSH2 0x1AF6 JUMP JUMPDEST DUP9 MLOAD RETURNDATASIZE DUP9 DUP3 RETURNDATACOPY RETURNDATASIZE SWAP1 REVERT JUMPDEST PUSH1 0x64 DUP6 DUP8 MLOAD SWAP1 PUSH3 0x461BCD PUSH1 0xE5 SHL DUP3 MSTORE PUSH1 0x4 DUP3 ADD MSTORE PUSH1 0x15 PUSH1 0x24 DUP3 ADD MSTORE PUSH32 0x496E76616C6964206167656E742063726561746F720000000000000000000000 PUSH1 0x44 DUP3 ADD MSTORE REVERT JUMPDEST PUSH1 0x64 DUP6 DUP8 MLOAD SWAP1 PUSH3 0x461BCD PUSH1 0xE5 SHL DUP3 MSTORE PUSH1 0x4 DUP3 ADD MSTORE PUSH1 0x14 PUSH1 0x24 DUP3 ADD MSTORE PUSH32 0x53616665206E6F7420696E697469616C697A6564000000000000000000000000 PUSH1 0x44 DUP3 ADD MSTORE REVERT JUMPDEST SWAP1 PUSH1 0x1 PUSH1 0x1 PUSH1 0xA0 SHL SUB DUP1 SWAP2 AND SWAP1 PUSH1 0x40 MLOAD SWAP3 PUSH32 0xDD62ED3E00000000000000000000000000000000000000000000000000000000 DUP5 MSTORE AND SWAP1 DUP2 PUSH1 0x4 DUP5 ADD MSTORE PUSH20 0x2626664C2603336E57B271C5C0B26F421741E481 DUP1 PUSH1 0x24 DUP6 ADD MSTORE PUSH1 0x20 SWAP4 DUP5 DUP2 PUSH1 0x44 DUP2 DUP7 GAS STATICCALL DUP1 ISZERO PUSH2 0x1299 JUMPI PUSH1 0x0 SWAP1 PUSH2 0x1CFA JUMPI JUMPDEST PUSH32 0x7FFFFFFFFFFFFFFFFFFFFFFFFFFFFFFFFFFFFFFFFFFFFFFFFFFFFFFFFFFFFFFF SWAP2 POP LT PUSH2 0x1C46 JUMPI JUMPDEST POP POP POP POP JUMP JUMPDEST PUSH2 0x1CC0 SWAP3 DUP5 SWAP3 PUSH1 0x40 MLOAD SWAP3 PUSH32 0x95EA7B300000000000000000000000000000000000000000000000000000000 DUP6 DUP6 ADD MSTORE PUSH1 0x24 DUP5 ADD MSTORE PUSH1 0x0 NOT PUSH1 0x44 DUP5 ADD MSTORE PUSH1 0x44 DUP4 MSTORE PUSH2 0x1C8F DUP4 PUSH2 0xDF7 JUMP JUMPDEST PUSH1 0x0 PUSH1 0x40 MLOAD DUP1 SWAP7 DUP2 SWAP6 DUP3 SWAP5 PUSH4 0x468721A7 PUSH1 0xE0 SHL DUP5 MSTORE PUSH1 0x4 DUP5 ADD MSTORE DUP4 PUSH1 0x24 DUP5 ADD MSTORE PUSH1 0x80 PUSH1 0x44 DUP5 ADD MSTORE PUSH1 0x84 DUP4 ADD SWAP1 PUSH2 0xE35 JUMP JUMPDEST DUP3 PUSH1 0x64 DUP4 ADD MSTORE SUB SWAP3 GAS CALL DUP1 ISZERO PUSH2 0x1299 JUMPI PUSH2 0x1CDC JUMPI JUMPDEST DUP1 DUP1 PUSH2 0x1C40 JUMP JUMPDEST DUP2 PUSH2 0x1CF2 SWAP3 SWAP1 RETURNDATASIZE LT PUSH2 0x1311 JUMPI PUSH2 0x1303 DUP2 DUP4 PUSH2 0xE13 JUMP JUMPDEST POP CODESIZE DUP1 PUSH2 0x1CD5 JUMP JUMPDEST DUP6 DUP3 DUP2 RETURNDATASIZE DUP4 GT PUSH2 0x1D40 JUMPI JUMPDEST PUSH2 0x1D0F DUP2 DUP4 PUSH2 0xE13 JUMP JUMPDEST DUP2 ADD SUB SLT PUSH2 0x1CC JUMPI POP PUSH32 0x7FFFFFFFFFFFFFFFFFFFFFFFFFFFFFFFFFFFFFFFFFFFFFFFFFFFFFFFFFFFFFFF SWAP1 MLOAD PUSH2 0x1C17 JUMP JUMPDEST POP RETURNDATASIZE PUSH2 0x1D05 JUMP INVALID LOG2 PUSH5 0x6970667358 0x22 SLT KECCAK256 AND CALLDATASIZE 0xCF SHL 0xE8 0xF7 DUP8 0xC7 CHAINID PUSH20 0xEBCC8FDE1671DC48E0DD841F887243D29BE0AEEA 0x49 PUSH16 0x64736F6C634300081400330000000000 "},"methodIdentifiers":{"PLATFORM_FEE()":"34fbc9a1","PROFIT_SHARE_BPS()":"c0e9ce54","UNISWAP_ROUTER()":"d8264920","USDC()":"89a30271","acpServiceIds(address)":"ee18a6af","closePosition(address,address,uint256,uint256,uint24,address,uint256)":"ccd76976","closePositionWithIntent(address,bytes32,address,address,uint256,uint256,uint24,address,uint256)":"b6f0a55b","executeTrade(address,address,address,uint256,uint256,uint24)":"939c9105","executeTradeWithIntent(address,bytes32,address,address,address,uint256,uint256,uint24)":"f9c1941f","executor()":"c34c08e5","getSafeStats(address)":"880d0a49","initializeSafe(address)":"e4279a41","isTokenWhitelisted(address,address)":"5011d107","moduleOwner()":"452c04b1","platformFeeReceiver()":"2d656ad7","safeStats(address)":"9a52d3bb","setACPServiceId(address,string)":"0b7ed698","setPlatformFeeReceiver(address)":"e340977a","setTokenWhitelist(address,address,bool)":"05d855f1","tokenWhitelist(address,address)":"bfb8afa7"}}}}}