{
  "_format": "hh-sol-artifact-1",
  "contractName": "MaxxitTradingModule",
  "sourceName": "contracts/MaxxitTradingModule.sol",
  "abi": [
    {
      "inputs": [
        {
          "internalType": "address",
          "name": "_executor",
          "type": "address"
        },
        {
          "internalType": "address",
          "name": "_platformFeeReceiver",
          "type": "address"
        }
      ],
      "stateMutability": "nonpayable",
      "type": "constructor"
    },
    {
      "anonymous": false,
      "inputs": [
        {
          "indexed": true,
          "internalType": "address",
          "name": "safe",
          "type": "address"
        },
        {
          "indexed": false,
          "internalType": "string",
          "name": "acpServiceId",
          "type": "string"
        }
      ],
      "name": "ACPServiceIdSet",
      "type": "event"
    },
    {
      "anonymous": false,
      "inputs": [
        {
          "indexed": true,
          "internalType": "address",
          "name": "safe",
          "type": "address"
        },
        {
          "indexed": false,
          "internalType": "uint256",
          "name": "initialCapital",
          "type": "uint256"
        }
      ],
      "name": "ModuleInitialized",
      "type": "event"
    },
    {
      "anonymous": false,
      "inputs": [
        {
          "indexed": true,
          "internalType": "address",
          "name": "safe",
          "type": "address"
        },
        {
          "indexed": true,
          "internalType": "address",
          "name": "token",
          "type": "address"
        },
        {
          "indexed": false,
          "internalType": "uint256",
          "name": "amountIn",
          "type": "uint256"
        },
        {
          "indexed": false,
          "internalType": "uint256",
          "name": "amountOut",
          "type": "uint256"
        },
        {
          "indexed": false,
          "internalType": "uint256",
          "name": "profit",
          "type": "uint256"
        },
        {
          "indexed": false,
          "internalType": "uint256",
          "name": "profitShare",
          "type": "uint256"
        }
      ],
      "name": "PositionClosed",
      "type": "event"
    },
    {
      "anonymous": false,
      "inputs": [
        {
          "indexed": true,
          "internalType": "address",
          "name": "safe",
          "type": "address"
        },
        {
          "indexed": true,
          "internalType": "address",
          "name": "agentCreator",
          "type": "address"
        },
        {
          "indexed": false,
          "internalType": "uint256",
          "name": "amount",
          "type": "uint256"
        }
      ],
      "name": "ProfitShareDistributed",
      "type": "event"
    },
    {
      "anonymous": false,
      "inputs": [
        {
          "indexed": true,
          "internalType": "bytes32",
          "name": "signalHash",
          "type": "bytes32"
        },
        {
          "indexed": true,
          "internalType": "address",
          "name": "creator",
          "type": "address"
        },
        {
          "indexed": false,
          "internalType": "uint256",
          "name": "timestamp",
          "type": "uint256"
        }
      ],
      "name": "ProofOfIntent",
      "type": "event"
    },
    {
      "anonymous": false,
      "inputs": [
        {
          "indexed": true,
          "internalType": "address",
          "name": "safe",
          "type": "address"
        },
        {
          "indexed": true,
          "internalType": "address",
          "name": "token",
          "type": "address"
        },
        {
          "indexed": false,
          "internalType": "bool",
          "name": "enabled",
          "type": "bool"
        }
      ],
      "name": "TokenWhitelistUpdated",
      "type": "event"
    },
    {
      "anonymous": false,
      "inputs": [
        {
          "indexed": true,
          "internalType": "address",
          "name": "safe",
          "type": "address"
        },
        {
          "indexed": true,
          "internalType": "address",
          "name": "tokenIn",
          "type": "address"
        },
        {
          "indexed": true,
          "internalType": "address",
          "name": "tokenOut",
          "type": "address"
        },
        {
          "indexed": false,
          "internalType": "uint256",
          "name": "amountIn",
          "type": "uint256"
        },
        {
          "indexed": false,
          "internalType": "uint256",
          "name": "amountOut",
          "type": "uint256"
        }
      ],
      "name": "TradeExecuted",
      "type": "event"
    },
    {
      "anonymous": false,
      "inputs": [
        {
          "indexed": true,
          "internalType": "address",
          "name": "safe",
          "type": "address"
        },
        {
          "indexed": false,
          "internalType": "uint256",
          "name": "amount",
          "type": "uint256"
        },
        {
          "indexed": false,
          "internalType": "address",
          "name": "receiver",
          "type": "address"
        }
      ],
      "name": "TradeFeeCollected",
      "type": "event"
    },
    {
      "inputs": [],
      "name": "PLATFORM_FEE",
      "outputs": [
        {
          "internalType": "uint256",
          "name": "",
          "type": "uint256"
        }
      ],
      "stateMutability": "view",
      "type": "function"
    },
    {
      "inputs": [],
      "name": "PROFIT_SHARE_BPS",
      "outputs": [
        {
          "internalType": "uint256",
          "name": "",
          "type": "uint256"
        }
      ],
      "stateMutability": "view",
      "type": "function"
    },
    {
      "inputs": [],
      "name": "UNISWAP_ROUTER",
      "outputs": [
        {
          "internalType": "address",
          "name": "",
          "type": "address"
        }
      ],
      "stateMutability": "view",
      "type": "function"
    },
    {
      "inputs": [],
      "name": "USDC",
      "outputs": [
        {
          "internalType": "address",
          "name": "",
          "type": "address"
        }
      ],
      "stateMutability": "view",
      "type": "function"
    },
    {
      "inputs": [
        {
          "internalType": "address",
          "name": "",
          "type": "address"
        }
      ],
      "name": "acpServiceIds",
      "outputs": [
        {
          "internalType": "string",
          "name": "",
          "type": "string"
        }
      ],
      "stateMutability": "view",
      "type": "function"
    },
    {
      "inputs": [
        {
          "internalType": "address",
          "name": "safe",
          "type": "address"
        },
        {
          "internalType": "address",
          "name": "tokenIn",
          "type": "address"
        },
        {
          "internalType": "uint256",
          "name": "amountIn",
          "type": "uint256"
        },
        {
          "internalType": "uint256",
          "name": "minAmountOut",
          "type": "uint256"
        },
        {
          "internalType": "uint24",
          "name": "poolFee",
          "type": "uint24"
        },
        {
          "internalType": "address",
          "name": "agentCreator",
          "type": "address"
        },
        {
          "internalType": "uint256",
          "name": "entryValueUSDC",
          "type": "uint256"
        }
      ],
      "name": "closePosition",
      "outputs": [
        {
          "internalType": "uint256",
          "name": "amountOut",
          "type": "uint256"
        }
      ],
      "stateMutability": "nonpayable",
      "type": "function"
    },
    {
      "inputs": [
        {
          "internalType": "address",
          "name": "safe",
          "type": "address"
        },
        {
          "internalType": "bytes32",
          "name": "signalHash",
          "type": "bytes32"
        },
        {
          "internalType": "address",
          "name": "creatorAddress",
          "type": "address"
        },
        {
          "internalType": "address",
          "name": "tokenIn",
          "type": "address"
        },
        {
          "internalType": "uint256",
          "name": "amountIn",
          "type": "uint256"
        },
        {
          "internalType": "uint256",
          "name": "minAmountOut",
          "type": "uint256"
        },
        {
          "internalType": "uint24",
          "name": "poolFee",
          "type": "uint24"
        },
        {
          "internalType": "address",
          "name": "agentCreator",
          "type": "address"
        },
        {
          "internalType": "uint256",
          "name": "entryValueUSDC",
          "type": "uint256"
        }
      ],
      "name": "closePositionWithIntent",
      "outputs": [
        {
          "internalType": "uint256",
          "name": "amountOut",
          "type": "uint256"
        }
      ],
      "stateMutability": "nonpayable",
      "type": "function"
    },
    {
      "inputs": [
        {
          "internalType": "address",
          "name": "safe",
          "type": "address"
        },
        {
          "internalType": "address",
          "name": "tokenIn",
          "type": "address"
        },
        {
          "internalType": "address",
          "name": "tokenOut",
          "type": "address"
        },
        {
          "internalType": "uint256",
          "name": "amountIn",
          "type": "uint256"
        },
        {
          "internalType": "uint256",
          "name": "minAmountOut",
          "type": "uint256"
        },
        {
          "internalType": "uint24",
          "name": "poolFee",
          "type": "uint24"
        }
      ],
      "name": "executeTrade",
      "outputs": [
        {
          "internalType": "uint256",
          "name": "amountOut",
          "type": "uint256"
        }
      ],
      "stateMutability": "nonpayable",
      "type": "function"
    },
    {
      "inputs": [
        {
          "internalType": "address",
          "name": "safe",
          "type": "address"
        },
        {
          "internalType": "bytes32",
          "name": "signalHash",
          "type": "bytes32"
        },
        {
          "internalType": "address",
          "name": "creatorAddress",
          "type": "address"
        },
        {
          "internalType": "address",
          "name": "tokenIn",
          "type": "address"
        },
        {
          "internalType": "address",
          "name": "tokenOut",
          "type": "address"
        },
        {
          "internalType": "uint256",
          "name": "amountIn",
          "type": "uint256"
        },
        {
          "internalType": "uint256",
          "name": "minAmountOut",
          "type": "uint256"
        },
        {
          "internalType": "uint24",
          "name": "poolFee",
          "type": "uint24"
        }
      ],
      "name": "executeTradeWithIntent",
      "outputs": [
        {
          "internalType": "uint256",
          "name": "amountOut",
          "type": "uint256"
        }
      ],
      "stateMutability": "nonpayable",
      "type": "function"
    },
    {
      "inputs": [],
      "name": "executor",
      "outputs": [
        {
          "internalType": "address",
          "name": "",
          "type": "address"
        }
      ],
      "stateMutability": "view",
      "type": "function"
    },
    {
      "inputs": [
        {
          "internalType": "address",
          "name": "safe",
          "type": "address"
        }
      ],
      "name": "getSafeStats",
      "outputs": [
        {
          "internalType": "bool",
          "name": "initialized",
          "type": "bool"
        },
        {
          "internalType": "uint256",
          "name": "initialCapital",
          "type": "uint256"
        },
        {
          "internalType": "uint256",
          "name": "totalTradesExecuted",
          "type": "uint256"
        },
        {
          "internalType": "uint256",
          "name": "totalFeesCollected",
          "type": "uint256"
        },
        {
          "internalType": "uint256",
          "name": "totalProfitsShared",
          "type": "uint256"
        }
      ],
      "stateMutability": "view",
      "type": "function"
    },
    {
      "inputs": [
        {
          "internalType": "address",
          "name": "safe",
          "type": "address"
        }
      ],
      "name": "initializeSafe",
      "outputs": [],
      "stateMutability": "nonpayable",
      "type": "function"
    },
    {
      "inputs": [
        {
          "internalType": "address",
          "name": "safe",
          "type": "address"
        },
        {
          "internalType": "address",
          "name": "token",
          "type": "address"
        }
      ],
      "name": "isTokenWhitelisted",
      "outputs": [
        {
          "internalType": "bool",
          "name": "",
          "type": "bool"
        }
      ],
      "stateMutability": "view",
      "type": "function"
    },
    {
      "inputs": [],
      "name": "moduleOwner",
      "outputs": [
        {
          "internalType": "address",
          "name": "",
          "type": "address"
        }
      ],
      "stateMutability": "view",
      "type": "function"
    },
    {
      "inputs": [],
      "name": "platformFeeReceiver",
      "outputs": [
        {
          "internalType": "address",
          "name": "",
          "type": "address"
        }
      ],
      "stateMutability": "view",
      "type": "function"
    },
    {
      "inputs": [
        {
          "internalType": "address",
          "name": "",
          "type": "address"
        }
      ],
      "name": "safeStats",
      "outputs": [
        {
          "internalType": "bool",
          "name": "initialized",
          "type": "bool"
        },
        {
          "internalType": "uint256",
          "name": "initialCapital",
          "type": "uint256"
        },
        {
          "internalType": "uint256",
          "name": "totalTradesExecuted",
          "type": "uint256"
        },
        {
          "internalType": "uint256",
          "name": "totalFeesCollected",
          "type": "uint256"
        },
        {
          "internalType": "uint256",
          "name": "totalProfitsShared",
          "type": "uint256"
        }
      ],
      "stateMutability": "view",
      "type": "function"
    },
    {
      "inputs": [
        {
          "internalType": "address",
          "name": "safe",
          "type": "address"
        },
        {
          "internalType": "string",
          "name": "serviceId",
          "type": "string"
        }
      ],
      "name": "setACPServiceId",
      "outputs": [],
      "stateMutability": "nonpayable",
      "type": "function"
    },
    {
      "inputs": [
        {
          "internalType": "address",
          "name": "newReceiver",
          "type": "address"
        }
      ],
      "name": "setPlatformFeeReceiver",
      "outputs": [],
      "stateMutability": "nonpayable",
      "type": "function"
    },
    {
      "inputs": [
        {
          "internalType": "address",
          "name": "safe",
          "type": "address"
        },
        {
          "internalType": "address",
          "name": "token",
          "type": "address"
        },
        {
          "internalType": "bool",
          "name": "enabled",
          "type": "bool"
        }
      ],
      "name": "setTokenWhitelist",
      "outputs": [],
      "stateMutability": "nonpayable",
      "type": "function"
    },
    {
      "inputs": [
        {
          "internalType": "address",
          "name": "",
          "type": "address"
        },
        {
          "internalType": "address",
          "name": "",
          "type": "address"
        }
      ],
      "name": "tokenWhitelist",
      "outputs": [
        {
          "internalType": "bool",
          "name": "",
          "type": "bool"
        }
      ],
      "stateMutability": "view",
      "type": "function"
    }
  ],
  "bytecode": "0x60c0346200016757601f62001f1538819003918201601f19168301916001600160401b038311848410176200016c57808492604094855283398101031262000167576200005a6020620000528362000182565b920162000182565b6001600160a01b0390828216156200012f5716908115620000ea573360805260a052600080546001600160a01b031916919091179055604051611d7d90816200019882396080518181816104c101526109e0015260a051818181610162015281816102f1015281816106530152818161074701528181610aaa01528181610cba01528181610ed201526116490152f35b60405162461bcd60e51b815260206004820152601460248201527f496e76616c6964206665652072656365697665720000000000000000000000006044820152606490fd5b60405162461bcd60e51b815260206004820152601060248201526f24b73b30b634b21032bc32b1baba37b960811b6044820152606490fd5b600080fd5b634e487b7160e01b600052604160045260246000fd5b51906001600160a01b0382168203620001675756fe6040608081526004908136101561001557600080fd5b600091823560e01c90816305d855f114610c515781630b7ed69814610a485781632d656ad714610a2257816334fbc9a114610a04578163452c04b1146109c05781635011d10714610948578163880d0a49146108a957816389a302711461087a578163939c9105146108275781639a52d3bb146107af578163b6f0a55b146106e2578163bfb8afa714610694578163c0e9ce5414610677578163c34c08e514610633578163ccd76976146105d0578163d8264920146105a1578163e340977a1461049a578163e4279a41146102c557508063ee18a6af146101d75763f9c1941f146100ff57600080fd5b346101d3576101003660031901126101d357610119610d11565b610121610d42565b9061012a610d58565b91608435906001600160a01b0380831683036101cf5760e4359662ffffff881688036101cc5750916020969391836101896101c597957f0000000000000000000000000000000000000000000000000000000000000000163314610e75565b87519142835216907f422eda3996a41c7ced7068f1d0bc80247c99a161ab5ea6edf66ab8789cf148958960243592a360c4359260a43592610ec0565b9051908152f35b80fd5b8680fd5b5080fd5b50346101d357602090816003193601126102c1576001600160a01b036101fb610d11565b16835260018083528184209382519485928282549261021984610d6e565b93848752888482169182600014610297575050600114610259575b858861025589610246848a0385610e13565b51928284938452830190610e35565b0390f35b87945081939291528383205b82841061027f575050508201018161024661025538610234565b8054848a018601528895508794909301928101610265565b60ff19168882015294151560051b8701909401945085935061024692506102559150389050610234565b8280fd5b919050346102c157602080600319360112610496576102e2610d11565b6001600160a01b0390610318827f0000000000000000000000000000000000000000000000000000000000000000163314610e75565b16928385526002825260ff8386205416610455578251926370a0823160e01b84528482850152828460248173833589fcd6edb6e08f4c7c32d4f71b54bda029135afa91821561044b5786926103f8575b7f6bfc790e212059fc023e662baf88adf0042bb30938f575f4b15ea4f5a7b75c0c945081519061039782610da8565b6001825284820184815283830189815260608401908a825260808501928b84528a8c52600289526103da878d2096511515879060ff801983541691151516179055565b5160018601555160028501555160038401555191015551908152a280f35b91508284813d8311610444575b61040f8183610e13565b81010312610440577f6bfc790e212059fc023e662baf88adf0042bb30938f575f4b15ea4f5a7b75c0c935191610368565b8580fd5b503d610405565b81513d88823e3d90fd5b90606492519162461bcd60e51b8352820152601360248201527f416c726561647920696e697469616c697a6564000000000000000000000000006044820152fd5b8380fd5b9050346102c15760203660031901126102c1576104b5610d11565b6001600160a01b0390817f000000000000000000000000000000000000000000000000000000000000000016330361055e571691821561051b5750507fffffffffffffffffffffffff000000000000000000000000000000000000000082541617815580f35b906020606492519162461bcd60e51b8352820152600f60248201527f496e76616c6964206164647265737300000000000000000000000000000000006044820152fd5b606483602086519162461bcd60e51b8352820152601160248201527f4f6e6c79206d6f64756c65206f776e65720000000000000000000000000000006044820152fd5b5050346101d357816003193601126101d35760209051732626664c2603336e57b271c5c0b26f421741e4818152f35b5050346101d35760e03660031901126101d3576105eb610d11565b916105f4610d2c565b6084359062ffffff821682036102c15760a435926001600160a01b03841684036101cc575091602094916101c59360c435936064359160443591611635565b5050346101d357816003193601126101d357602090516001600160a01b037f0000000000000000000000000000000000000000000000000000000000000000168152f35b5050346101d357816003193601126101d357602090516107d08152f35b5050346101d357806003193601126101d35760ff816020936106b4610d11565b6106bc610d2c565b6001600160a01b0391821683526003875283832091168252855220549151911615158152f35b5050346101d3576101203660031901126101d3576106fe610d11565b91610707610d42565b61070f610d58565b60c4359162ffffff831683036104965760e435936001600160a01b039081861686036101cc57509160209693918361076e6101c597957f0000000000000000000000000000000000000000000000000000000000000000163314610e75565b87519142835216907f422eda3996a41c7ced7068f1d0bc80247c99a161ab5ea6edf66ab8789cf148958960243592a3610104359360a4359160843591611635565b8284346101cc5760203660031901126101cc5781610255916001600160a01b036107d7610d11565b1681526002602052209160ff8354169260018101549460028201549060038301549201549251958695869192608093969594919660a0840197151584526020840152604083015260608201520152565b5050346101d35760c03660031901126101d357610842610d11565b61084a610d2c565b90610853610d42565b60a4359462ffffff861686036101cc575091602094916101c5936084359260643592610ec0565b5050346101d357816003193601126101d3576020905173833589fcd6edb6e08f4c7c32d4f71b54bda029138152f35b8284346101cc5760203660031901126101cc57608082610255926001600160a01b036108d3610d11565b1681526002602052208351946108e886610da8565b60ff82541615159485875260018301549687602082015260028401549283838301526003850154948560608401520154948591015251958695869192608093969594919660a0840197151584526020840152604083015260608201520152565b5050346101d357806003193601126101d357908160ff602093610969610d11565b93610972610d2c565b6001600160a01b0395861682526003875282822095168082529486522054169182156109a2575b50519015158152f35b73833589fcd6edb6e08f4c7c32d4f71b54bda0291314915038610999565b5050346101d357816003193601126101d357602090516001600160a01b037f0000000000000000000000000000000000000000000000000000000000000000168152f35b5050346101d357816003193601126101d3576020905162030d408152f35b5050346101d357816003193601126101d3576001600160a01b0360209254169051908152f35b839150346101d357826003193601126101d357610a63610d11565b9060249384359267ffffffffffffffff92838511610440573660238601121561044057840135928311610c4d5736868486010111610c4d576001600160a01b0390610ad1827f0000000000000000000000000000000000000000000000000000000000000000163314610e75565b1692838552600195602091878352838720610aec8154610d6e565b601f8111610c07575b5087601f8711600114610b7d5791839187808b9c819782977fa99d4e594e17fa9693a9c46535bffb5febcfec15d9474bd4301efed02a4f25f69d9e94610b70575b50501b906000198660031b1c19161790555b855196858896875286015201848401378181018301879052601f01601f19168101030190a280f35b860101359250858f610b36565b98601f198716828a52858a20908a5b818110610bf0575091889593917fa99d4e594e17fa9693a9c46535bffb5febcfec15d9474bd4301efed02a4f25f69a9b9c8780979510610bd4575b505084811b019055610b48565b8401850135600019600388901b60f8161c191690558c80610bc7565b858d0187013583559b87019b918301918701610b8c565b818952848920601f880160051c810191868910610c43575b601f0160051c01908a905b828110610c38575050610af5565b8a8155018a90610c2a565b9091508190610c1f565b8480fd5b5050346101d35760603660031901126101d357610c6c610d11565b610c74610d2c565b91604435801515808203610440577fd8d7b6d387fca91d5bb6edb4eaf305462ce76a1af2acae4f905a7d12689031f792610d096020936001600160a01b038097610ce1827f0000000000000000000000000000000000000000000000000000000000000000163314610e75565b1696878a5260038652838a20981697888a5285528289209060ff801983541691151516179055565b51908152a380f35b600435906001600160a01b0382168203610d2757565b600080fd5b602435906001600160a01b0382168203610d2757565b604435906001600160a01b0382168203610d2757565b606435906001600160a01b0382168203610d2757565b90600182811c92168015610d9e575b6020831014610d8857565b634e487b7160e01b600052602260045260246000fd5b91607f1691610d7d565b60a0810190811067ffffffffffffffff821117610dc457604052565b634e487b7160e01b600052604160045260246000fd5b610100810190811067ffffffffffffffff821117610dc457604052565b6080810190811067ffffffffffffffff821117610dc457604052565b90601f8019910116810190811067ffffffffffffffff821117610dc457604052565b919082519283825260005b848110610e61575050826000602080949584010152601f8019910116010190565b602081830181015184830182015201610e40565b15610e7c57565b606460405162461bcd60e51b815260206004820152600d60248201527f4f6e6c79206578656375746f72000000000000000000000000000000000000006044820152fd5b9291949093610ef96001600160a01b037f0000000000000000000000000000000000000000000000000000000000000000163314610e75565b6001600160a01b038416600052600260205260ff604060002054161561146d575b6001600160a01b038416600052600360205260406000206001600160a01b03871660005260205260ff604060002054168015611447575b156114035773833589fcd6edb6e08f4c7c32d4f71b54bda029136001600160a01b038616036113bf5762030d40831061137b57610fda60206001600160a01b03600054166040519063a9059cbb60e01b83830152602482015262030d40604482015260448152610fc081610df7565b6040518093819263468721a760e01b8352600483016115c0565b038160006001600160a01b038a165af19081156112995760009161135c575b5015611318576001600160a01b0384166000526002602052600360406000200180549062030d40820180921161124f57556001600160a01b03600054166040519062030d40825260208201527fff8ce3de7612757f5de36ca8b37f26c739c36eaa2eacc0603c6a15d8a2b5e49060406001600160a01b03871692a262030d3f19830192831161124f5761115261116061117a936020936110998989611ba7565b62ffffff604051926110aa84610dda565b6001600160a01b038b811685528c811688860152911660408085019182528a831660608601908152426080870190815260a087018c815260c08801968752600060e08901908152935163414bf38960e01b818d015288518716602482015260209098015186166044890152935162ffffff1660648801529051841660848701525160a4860152905160c4850152915160e4840152905116610104820152918290610124820190565b03601f198101835282610e13565b6040518093819263468721a760e01b8352600483016115fd565b038160006001600160a01b0388165af1908115611299576000916112e9575b50156112a557604051936370a0823160e01b85526001600160a01b03831660048601526020856024816001600160a01b0385165afa94851561129957600095611265575b506001600160a01b0383166000526002602052600260406000200190815490600019821461124f576001600160a01b038080927f3fcfb2f2e0146d5be7268f9e4cd3c4c0ce3428f68805db227b7fc378db7519ac9560016040960190558451968752896020880152169616941692a490565b634e487b7160e01b600052601160045260246000fd5b9094506020813d602011611291575b8161128160209383610e13565b81010312610d27575193386111dd565b3d9150611274565b6040513d6000823e3d90fd5b606460405162461bcd60e51b815260206004820152600b60248201527f53776170206661696c65640000000000000000000000000000000000000000006044820152fd5b61130b915060203d602011611311575b6113038183610e13565b8101906115a8565b38611199565b503d6112f9565b606460405162461bcd60e51b815260206004820152601560248201527f46656520636f6c6c656374696f6e206661696c656400000000000000000000006044820152fd5b611375915060203d602011611311576113038183610e13565b38610ff9565b606460405162461bcd60e51b815260206004820152601860248201527f416d6f756e7420746f6f20736d616c6c20666f722066656500000000000000006044820152fd5b606460405162461bcd60e51b815260206004820152601260248201527f4f6e6c79205553444320617320696e70757400000000000000000000000000006044820152fd5b606460405162461bcd60e51b815260206004820152601560248201527f546f6b656e206e6f742077686974656c697374656400000000000000000000006044820152fd5b5073833589fcd6edb6e08f4c7c32d4f71b54bda029136001600160a01b03871614610f51565b6040516370a0823160e01b81526001600160a01b038516600482015260208160248173833589fcd6edb6e08f4c7c32d4f71b54bda029135afa90811561129957600091611569575b506040516114c281610da8565b6001815260046020820183815260408301600081526060840190600082526080850192600084526001600160a01b038b166000526002602052611519604060002096511515879060ff801983541691151516179055565b516001860155516002850155516003840155519101556040519081527f6bfc790e212059fc023e662baf88adf0042bb30938f575f4b15ea4f5a7b75c0c60206001600160a01b03871692a2610f1a565b90506020813d602011611593575b8161158460209383610e13565b81010312610d275751386114b5565b3d9150611577565b9190820391821161124f57565b90816020910312610d2757518015158103610d275790565b919060606115f860009273833589fcd6edb6e08f4c7c32d4f71b54bda029138652836020870152608060408701526080860190610e35565b930152565b919060606115f8600092732626664c2603336e57b271c5c0b26f421741e4818652836020870152608060408701526080860190610e35565b90919293946001600160a01b0394611670867f0000000000000000000000000000000000000000000000000000000000000000163314610e75565b858316956000908782526020926002845260409460ff868520541615611b64578216958615611b2157876116a391611ba7565b8451906370a0823160e01b908183528a600484015273833589fcd6edb6e08f4c7c32d4f71b54bda02913938684602481885afa938415611b17578694611ae8575b508751996116f18b610dda565b169b8c8a5284878b015262ffffff16878a01528a60608a01524260808a01528960a08a015260c08901528360e08901528551809886820163414bf38960e01b905260248201906117a1909160e0610100820193816001600160a01b039182815116855282602082015116602086015262ffffff60408201511660408601528260608201511660608601526080810151608086015260a081015160a086015260c081015160c0860152015116910152565b03601f19810189526117b39089610e13565b855185818c81888163468721a760e01b9e8f825260048201906117d5916115fd565b03925af1908115611ade578591611ac1575b5015611a7e578490602487518095819382528d60048301525afa80156119ec578390611a4d575b611818925061159b565b98808a1161182d575b50505050505050505090565b611837908a61159b565b936107d0808602908682041486151715611a39576127109004958587116119f657908a939291876118aa575b505083519687525085015283015260608201527fa12c8f9b9cb538f29c4a1af155d26d6337f896967b74b297f75f1864b719408590608090a3388080808080808080611821565b839450926118ee91929386519063a9059cbb60e01b83830152846024830152896044830152604482526118dc82610df7565b875193849283928352600483016115c0565b0381868d5af19081156119ec5783916119cf575b501561198c57877fde542754cbe64e85d7631fd8696b87e68cc3cc5521243efb5cb15687287ba4fa848651898152a38681526002825260048382200180549186830180931161197857505587908160807fa12c8f9b9cb538f29c4a1af155d26d6337f896967b74b297f75f1864b7194085611863565b80634e487b7160e01b602492526011600452fd5b60648385519062461bcd60e51b82526004820152601c60248201527f50726f666974207368617265207472616e73666572206661696c6564000000006044820152fd5b6119e69150843d8611611311576113038183610e13565b38611902565b85513d85823e3d90fd5b60648486519062461bcd60e51b82526004820152601460248201527f496e76616c69642070726f6669742073686172650000000000000000000000006044820152fd5b602483634e487b7160e01b81526011600452fd5b50908381813d8311611a77575b611a648183610e13565b810103126102c15790611818915161180e565b503d611a5a565b60648587519062461bcd60e51b82526004820152601160248201527f436c6f73652073776170206661696c65640000000000000000000000000000006044820152fd5b611ad89150863d8811611311576113038183610e13565b386117e7565b87513d87823e3d90fd5b9093508681813d8311611b10575b611b008183610e13565b81010312610440575192386116e4565b503d611af6565b88513d88823e3d90fd5b60648587519062461bcd60e51b82526004820152601560248201527f496e76616c6964206167656e742063726561746f7200000000000000000000006044820152fd5b60648587519062461bcd60e51b82526004820152601460248201527f53616665206e6f7420696e697469616c697a65640000000000000000000000006044820152fd5b906001600160a01b0380911690604051927fdd62ed3e0000000000000000000000000000000000000000000000000000000084521690816004840152732626664c2603336e57b271c5c0b26f421741e4818060248501526020938481604481865afa801561129957600090611cfa575b7f7fffffffffffffffffffffffffffffffffffffffffffffffffffffffffffffff915010611c46575b50505050565b611cc0928492604051927f095ea7b300000000000000000000000000000000000000000000000000000000858501526024840152600019604484015260448352611c8f83610df7565b600060405180968195829463468721a760e01b84526004840152836024840152608060448401526084830190610e35565b82606483015203925af1801561129957611cdc575b8080611c40565b81611cf292903d10611311576113038183610e13565b503880611cd5565b8582813d8311611d40575b611d0f8183610e13565b810103126101cc57507f7fffffffffffffffffffffffffffffffffffffffffffffffffffffffffffffff9051611c17565b503d611d0556fea26469706673582212201636cf1be8f787c74673ebcc8fde1671dc48e0dd841f887243d29be0aeea496f64736f6c63430008140033",
  "linkReferences": {},
  "deployedLinkReferences": {}
}